:020000040800F2
:10000000580A002065020008B1340008A93400082D
:10001000AD3400089D0400081D37000800000000F2
:10002000000000000000000000000000BD340008D7
:10003000B904000800000000B5340008C13400080D
:100040007F0200087F0200087F0200087F0200088C
:100050007F020008B93400087F0200087F02000810
:100060007F0200087F0200087F0200087F0200086C
:100070007F0200087F0200087F0200087F0200085C
:100080007F0200087F0200087F0200087F0200084C
:10009000A10400087F0200087F0200087F02000818
:1000A0007F0200087F0200087F0200087F0200082C
:1000B000913500087F0200089D3500087F02000886
:1000C0007F0200087F0200087F0200087F0200080C
:1000D0007F0200087F0200087F0200087F020008FC
:1000E0007F0200087F0200087F020008C135000877
:1000F0007F0200087F0200087F0200087F020008DC
:100100007F0200087F020008A93500087F0200086E
:100110007F0200087F0200087F020008B535000852
:10012000AD0400087F0200087F0200087F0200087B
:100130007F02000800000000000000007F020008AD
:100140007F0200087F0200087F0200087F0200088B
:100150007F0200087F0200087F0200087F0200087B
:100160007F0200087F0200087F0200087F0200086B
:100170007F0200087F0200087F02000800000000E4
:10018000000000007F0200080000000000000000E6
:100190007F02000800000000000000007F0200084D
:1001A0000000000000000000000000007F020008C6
:1001B0007F0200087F0200087F0200087F0200081B
:1001C0007F02000800F002F800F03CF80AA090E876
:1001D000000C82448344AAF10107DA4501D100F002
:1001E00031F8AFF2090EBAE80F0013F0010F18BF93
:1001F000FB1A43F001031847F04F000010500000B5
:10020000103A24BF78C878C1FAD8520724BF30C842
:1002100030C144BF04680C60704700000023002414
:1002200000250026103A28BF78C1FBD8520728BF06
:1002300030C148BF0B6070471FB504F0B2FF1FBD4F
:1002400010B510BD00F0A9F81146FFF7F5FF03F057
:10025000DFFD00F0C7F803B4FFF7F2FF03BC00F0C6
:10026000CFF800000948804709480047FEE7FEE74D
:10027000FEE7FEE7FEE7FEE7FEE7FEE7FEE7FEE756
:1002800004480549054A064B704700007D350008C3
:10029000C501000858040020580A00205806002014
:1002A0005806002053EA020C00F069802DE9F04B5B
:1002B0004FF00006002B1FBFB3FA83F503FA05F4D5
:1002C00024FA05F65E4012BF1643B2FA82F502FA2E
:1002D00005F4C5F120051EBF22FA05FC44EA0C0412
:1002E000203556EA044C4FEA144418BF641C4FF002
:1002F00000084FF00009904271EB030C39D300293C
:1003000019BFB1FA81F701FA07F6B0FA80F700FADF
:1003100007F6C7F120071EBF20FA07FC46EA0C06C5
:100320002037B6FBF4FCA7EB0507103F07F01F0BC7
:10033000CBF120062CFA06F60CFA0BFB44BFB346B1
:100340000026202FA4BF5E464FF0000B5BEA060C90
:1003500008BF4FF0010B19EB0B0948EB0608ABFB8C
:10036000027C06FB02CC0BFB03CCC01B71EB0C0127
:10037000C1E70B46024641464846BDE8F08B13B53F
:10038000084318BF4FF0FF300146AFF30080BDE8CF
:100390001C407047704770477047754600F02CF856
:1003A000AE4605006946534620F00700854618B062
:1003B00020B5FFF765FFBDE820404FF000064FF085
:1003C00000074FF000084FF0000BAC46ACE8C00946
:1003D000ACE8C009ACE8C009ACE8C00921F00701ED
:1003E0008D46704710B50446AFF300802046BDE847
:1003F0001040FFF730BF0000004870471000002099
:1004000001491820ABBEFEE726000200704700003D
:100410000146806B036C026C13F0500F08D0D206BB
:1004200048BF00F003BB806BC26C0846104700BF9A
:1004300042F40071016401688A6812F0405F01D0E3
:1004400000F0A6BA027E002AFAD1CA6A12F4700F2E
:1004500002D08A685205F3D44A6822F020024A602A
:10046000016C21F480710164016CC90448BF00F083
:100470008FBA016C41F00101016400F089BA0000FB
:10048000806B40210164416C41F00401416400F043
:10049000CDBA0000806B00F0C7BA0000FEE7000094
:1004A00040F21010C2F2000000F028BE40F2B4107A
:1004B000C2F2000001F0B6B8704700002DE9F0412B
:1004C00040F20008C4F2020840464FF48061012265
:1004D00001F062FB40F23435C2F2000540F27006D2
:1004E0002868C2F2000600276FF001043763046138
:1004F000284602F05BF9306B80087C2814D800BFD6
:1005000030BF306B80087C280ED830BF306B80083D
:100510007C2809D830BF306B80087C2804D830BFD5
:10052000306BB0F5FA7FEBD3284602F095F94046E0
:100530004FF48061002201F02FFB286837630461CB
:10054000284602F033F9306B80087C2814D800BFAD
:1005500030BF306B80087C280ED830BF306B8008ED
:100560007C2809D830BF306B80087C2804D830BF85
:10057000306BB0F5FA7FEBD3284602F06DF94046B8
:100580004FF48061012201F007FB286800276FF01B
:10059000010437630461284602F008F9306B8008D3
:1005A0007C2813D830BF306B80087C280ED830BF31
:1005B000306B80087C2809D830BF306B80087C28DD
:1005C00004D830BF306BB0F5FA7FEBD3284602F089
:1005D00043F940464FF48061002201F0DDFA2868BB
:1005E00037630461284602F0E1F8306B80087C280C
:1005F00014D800BF30BF306B80087C280ED830BFC5
:10060000306B80087C2809D830BF306B80087C288C
:1006100004D830BF306BB0F5FA7FEBD3284602F038
:100620001BF940464FF48061012201F0B5FA2868B9
:1006300000276FF0010437630461284602F0B6F822
:10064000306B80087C2813D830BF306B80087C2842
:100650000ED830BF306B80087C2809D830BF306B93
:1006600080087C2804D830BF306BB0F5FA7FEBD31C
:10067000284602F0F1F840464FF48061002201F074
:100680008BFA286837630461284602F08FF8306BD4
:1006900080087C2814D800BF30BF306B80087C28CD
:1006A0000ED830BF306B80087C2809D830BF306B43
:1006B00080087C2804D830BF306BB0F5FA7FEBD3CC
:1006C000284602F0C9F840464FF48061012201F04B
:1006D00063FA286800276FF0010437630461284635
:1006E00002F064F8306B80087C2813D830BF306B80
:1006F00080087C280ED830BF306B80087C2809D851
:1007000030BF306B80087C2804D830BF306BB0F528
:10071000FA7FEBD3284602F09FF840464FF4806101
:10072000002201F039FA286837630461284602F094
:100730003DF8306B80087C2814D800BF30BF306B88
:1007400080087C280ED830BF306B80087C2809D800
:1007500030BF306B80087C2804D830BF306BB0F5D8
:10076000FA7FEBD3284602F077F840464FF48061D9
:10077000012201F011FA286800276FF001043763A5
:100780000461284602F012F8306B80087C2813D8E8
:1007900030BF306B80087C280ED830BF306B8008AB
:1007A0007C2809D830BF306B80087C2804D830BF43
:1007B000306BB0F5FA7FEBD3284602F04DF8404697
:1007C0004FF48061002201F0E7F928683763046183
:1007D000284601F0EBFF306B80087C2814D800BF5E
:1007E00030BF306B80087C280ED830BF306B80085B
:1007F0007C2809D830BF306B80087C2804D830BFF3
:10080000306BB0F5FA7FEBD340F23430C2F2000027
:10081000BDE8F04102F020B870B581B0002200922E
:1008200090F83C20012A03D10221084601B070BD96
:100830000E6801220A2E80F83C2009D3B2B2520081
:10084000D0F800E012FA86F21E3A0EF10C0305E031
:10085000D0F800E006EB46020EF110034FF0070C53
:100860001D680CFA02F4A5431D608D681C6805FA2A
:1008700002F222431A60496806290FD801EB810170
:100880004A1F71461F2351F8345F934025EA030342
:100890000B60B3B203FA02F214E000BF01EB810374
:1008A0000C29B2B204D8714651F8304F233B03E013
:1008B000714651F82C4F413B1F259D4024EA050508
:1008C0009A400D600B6842F2043CC4F2010C1A43DA
:1008D000ACF541739E450A6006D0002180F83C10BB
:1008E000084601B070BD00BF1221112EC1F20001F7
:1008F00018BF8E423AD1DCF800208E4222F48002EA
:10090000CCF80020DCF8002042F40002CCF80020F3
:10091000E3D140F20801C2F2000109684DF683629A
:10092000C4F21B32A1FB0212910C01EB81014900C0
:10093000009100990029D0D00099013900910099C7
:100940000029CAD000990139009100990029C4D02A
:1009500000990139009100990029BED00099013910
:10096000009100990029E7D1B7E700BF122EB4D15A
:10097000DCF8001021F40001CCF80010DCF80010C5
:1009800041F48001CCF80010A7E70000000000004F
:1009900010B5006842F20001C4F20101884218BF9C
:1009A00010BD40F27004C2F20004A08B04F0D5F92F
:1009B0009FED170B53EC102B04F05AFA9FED160B1A
:1009C00053EC102B04F004F803F0C4FF00EE100AFF
:1009D000B0EE081A20EE010AB6EE001A20EE010A67
:1009E000BFEE001A84ED0B0A30EE010AA06210EE91
:1009F000100A04F03BFB9FED0A0B53EC102B03F0A5
:100A0000E7FF03F0A7FF606210BD00BF00BF00BF9B
:100A10006666666666660A400000000000FEAF403B
:100A20009A9999999999D93F7047000070470000A9
:100A3000002804BF0120704710B50446006C002850
:100A40003ED0206CC00645D4206C41F20211884390
:100A5000023042F204312064C4F20101086820F43B
:100A6000403008600A6894E809101A43D4F810E08E
:100A70000A604168012321F4807141604168C0F639
:100A8000007341EA0E214160416821F040714160EC
:100A9000416841EA0C014160816821F40061816094
:100AA000E168826811438160A16A8268994222F0FC
:100AB00070628260826813D122F0405119E000BF59
:100AC000204600F065F80020606484F83C00206C4B
:100AD000C006B9D50120002184F83C1010BD00BF2C
:100AE00011438160816821F040518160E16A826830
:100AF00011438160816821F0020181608168227E5A
:100B000094F8203041EA42018160416883B141F4A8
:100B10000061416041684EF2000221F46041416091
:100B2000616ACFF6FF72436802EB4131194301E07D
:100B300021F400614160C16A40F2000C21F47001AF
:100B4000C162E2696169CFF6F07CC36A0CEB0252C4
:100B50001A43C262826822F40072826094F83020E4
:100B6000836843EA42228260826822F48062826063
:100B7000826842EA8121816000206064216C012248
:100B800062F301012164002184F83C1010BD0000D3
:100B900070B586B0044642F200002168C4F201003C
:100BA000002681420596049602D006B070BD00BFB3
:100BB00043F630010096C4F202014A6900F5604034
:100BC00042F480724A614A6902F480720092009A8B
:100BD00000960A6842F001020A60096801F001010A
:100BE00000910099022101910321CDE9021601A98A
:100BF00000F0FAFE40F2B41546F21040C2F20005D1
:100C0000C4F202004FF48061C5E9000605F110004E
:100C10004FF400624FF400534FF4807C80E80E10D4
:100C20002846C5E90266C5E9086600F0DBFD002834
:100C300018BFFFF743FCA563AC6306B070BD0000AE
:100C4000B0B582B004460020019094F83C00012821
:100C500002D1022002B0B0BD94460A4601202168AC
:100C600084F83C008868C00729D188684DF6836500
:100C700040F00100886040F20800C2F20000006805
:100C8000C4F21B35A0FB0505A80C00EB4000019049
:100C90000198A0B1019801380190019878B10198AC
:100CA00001380190019850B10198013801900198E4
:100CB00028B101980138019001980028EAD188688C
:100CC000C00503D5886820F4807088608D68206C2A
:100CD000ED0709D140F010002064606C40F0010085
:100CE0006064002002B0B0BD40F20175A84300F579
:100CF000807020644868400504D5206C012565F3A8
:100D00000D302064256C0020ED044FF0000544BF39
:100D1000656C25F00605656484F83C00A06B40F224
:100D2000114540F29543C0F60005C0F60003C0E946
:100D30000F5340F28143C0F60003C3646FF02203F7
:100D40000B604B6842F2080543F080634B608B6890
:100D5000C4F2010543F480738B604C31634600F0AC
:100D6000F3FDD5F8FC122068C9060FD0A5F10801E3
:100D70008842B6D1286810F0405FB2D1286840F0B0
:100D800080402860002002B0B0BD00BF42F20001E8
:100D9000C4F20101884217D042F20021C4F20101DD
:100DA00088420DD042F20011C4F20101884298D16C
:100DB000D5F8FC12C90607D005F5FC71884290D120
:100DC000D5F8FC12C9068CD4816811F0405F7FF41D
:100DD00088AF816841F080418160002002B0B0BDE1
:100DE00090F82020013A012A08D8006800F1140286
:100DF0000020136819431160704700BF00F12402FE
:100E000001204FF4802113681943116070470000DE
:100E100010B590F820E0D0F800C0AEF1010EBEF1A0
:100E2000010FDCF808E011D81EF0E05F18D0CEF317
:100E3000016EBEF1030F1DD100F1240101204FF41A
:100E400000020B681A430A6010BD00BF00F12401C4
:100E500001204FF480220B681A430A6010BD00BFC6
:100E600000F1240101204FF400120B681A430A60BC
:100E700010BD00BF012000FA0EF01860886828B18C
:100E80004B68CC6844EAC303034303E00868CB68BB
:100E900043EA40530CEB0E10C0F880310B69C0F8E8
:100EA0008431097D012905D100F5C2710B6843F435
:100EB00080730B605168C0F88C11126800F5C07126
:100EC000C0F88821002001220B681A430A6010BD77
:100ED000B0B590F82020013A012A2FD846F20060E0
:100EE000C4F20000026842F001020260026822F4CB
:100EF0007C520260D1F814E0CC694A6A0368012C84
:100F000043EA022202600EF01F024FF0010303FACF
:100F100002F2C3696FEA020C23EA0203C36113D031
:100F20002CBBC36803EA0C03C360CB688C8844EA1B
:100F3000034300EBCE0423640B4611E0416A41F405
:100F4000802141620120B0BDC3681343C3600B68B8
:100F50008C8844EA034300EBCE04236401F10C03C4
:100F60008C681B8843EA044300EBCE046364436847
:100F70008D6943EA0204D1F810E0096A002D08BF28
:100F800003EA0C0444604369BEF1000F43EA020423
:100F900008BF03EA0C040129446102D1C16911436D
:100FA000C161016821F0010101600020B0BD0000B5
:100FB0007047000010B590F82040013C012C71D81A
:100FC000D0F800C0002977D0DCF81040A40777D013
:100FD0000CEB011CDCF8B0410CF5D87E14F00404D5
:100FE0009460DCF8B04119BFE4085460640D1460EB
:100FF000DEF80040002904F00204D460DCF8B441BB
:1010000004F00F041461DCF8B441C4F307249461C4
:10101000DCF8B4414FEA14445461DCF8B8211A708A
:10102000026802EB0112D2F8B8214FEA12225A707C
:10103000026802EB0112D2F8B8214FEA12429A700C
:10104000026802EB0112D2F8B8214FEA1262DA709C
:10105000026802EB0112D2F8BC211A71026802EB9D
:101060000112D2F8BC214FEA12225A71026802EB37
:101070000112D2F8BC214FEA12429A71026802EBC7
:101080000112D2F8BC214FEA1262DA71006814BF73
:1010900000F1100100F10C01002020220B681A431E
:1010A0000A6010BD00F1240101204FF480220B687A
:1010B0001A430A6010BD00BFDCF80C40A40787D1BA
:1010C00000F1240101204FF400120B681A430A605A
:1010D00010BD000090F820100139012984BF0020C4
:1010E00070470068816882688068C1F38061C2F3DC
:1010F000C0621144C0F30070084470472DE9F04FFE
:1011000081B0044600684669D0F804908768D0F83A
:101110000CB0D0F810A0D0F81880F10704D1002549
:1011200030071DD424E000BFF90710D00121BA0711
:10113000816009D4780700F1AF80380700F1B680EC
:10114000204600F061FA02E0204600F05FFA002538
:10115000F80500F18780F80300F1B180300707D56A
:101160001BF0100004D0206845F400751021C16008
:10117000700708D51BF0080005D020680821C16061
:10118000204600F0A3F9B00706D52068C0688007A4
:1011900002D0204600F09CF9700607D51AF0100026
:1011A00004D0206845F4806510210161B00608D59F
:1011B0001AF0080005D0206808210161204600F0DF
:1011C000EFF9F00606D520680069800702D02046B6
:1011D00000F0E8F9B00308D519F0100005D0206838
:1011E00010214160204600F0DFF9F00308D519F026
:1011F000080005D0206808214160204600F010FA60
:10120000300440F19B805FEA497040F1948006F41D
:10121000807008EA102028435FEA8871014648BFC1
:1012200041F00201B20558BF01465FEA48700D4621
:1012300048BF45F00405700558BF0D46300540F124
:101240007A8018F0700000F07680103800090528C8
:101250006CD8DFE800F003595D61656945F0080569
:1012600064E000BF20684FF48071BA0581600BD440
:10127000780515D438051DD4204600F0C9F9F803C7
:101280007FF56CAF1BE000BF204600F0C3F9F80308
:101290007FF564AF13E000BF4FF4006558E700BF6F
:1012A00005F50055F8037FF559AF08E04FF4805578
:1012B0004EE700BF05F58045F8037FF54FAF206886
:1012C0004FF48031BA0381600AD4780310D4380314
:1012D00014D4204600F0A0F930073FF541AF47E7AE
:1012E000204600F09BF930073FF53AAF40E700BFDA
:1012F00005F5004530073FF533AF39E705F5803593
:1013000030073FF52DAF33E745F010050EE000BF85
:1013100045F020050AE000BF45F0400506E000BFAB
:1013200045F0800502E000BF45F4807520688169C2
:1013300021F07001816120680421416055B1606A2B
:1013400040EA05012046616201B0BDE8F04FFFF7B9
:101350002FBE00BF01B0BDE8F08F0000B0B5C8B12E
:10136000044690F8200010B9204600F071F820687B
:10137000016821F00201016000F014FC054600BF85
:1013800020684168890707D500F00CFC401B0B283A
:10139000F6D312E00120B0BD016841F00101016007
:1013A00000F000FC054600BF20684168C9070DD168
:1013B00000F0F8FB401B0B28F6D3606A052140F4CF
:1013C00000306062012084F82010B0BD217E0268E8
:1013D000012922F0800208BF80320260617E02682B
:1013E000012922F0400208BF40320260A17E02685B
:1013F000012922F0200208BF20320260E17E02684B
:10140000012922F0100218BF10320260217F026809
:10141000012922F0080208BF08320260617F0268D9
:10142000012922F0040208BF04320260D4E901C29B
:10143000D4E9033561691A432A431143ACF101022F
:101440001143C16100200121606284F82010B0BD09
:1014500080B586B0016846F20040C4F200008142C7
:1014600002D006B080BD00BF002143F630020191DA
:10147000C4F20202136900F5CE3043F00073136129
:10148000136903F000730193019B0191136843F00A
:1014900001031360126802F001020192019A4FF4F5
:1014A000C05201920222CDE90221032104910921B7
:1014B000059101A900F098FA14200021002200F003
:1014C000FFFB142000F0E8FB06B080BD7047000071
:1014D00070B5016846F20042C4F20002914218BFA2
:1014E00070BD40F2700540F2DC06C2F20005C2F2A7
:1014F000000605F1400406F1180200212346FFF71B
:1015000059FD002818BFFEF7D9FFB169B06A6529F7
:1015100008BF082808D00A2908BF032820D073294B
:1015200008BF02282CD070BDE87C21460130E87449
:1015300005F13800082202F0EBFB40F23811288F49
:10154000C2F2000100228A6103F007FC9FED120B3A
:1015500053EC102B03F03CFA03F0D0FB288770BD4E
:10156000E87C21460130E87405F12000032202F0F6
:1015700087FB40F23810C2F200000021016370BD09
:1015800005F150002146022202F0E2FBE87903282F
:1015900004BF0120287070BD000000000000594009
:1015A000704700007047000070470000B0B5044667
:1015B00090F8200001281DD1022084F82000206826
:1015C000016821F00101016000F0ECFA054600BF5E
:1015D00020684068C00713D000F0E4FA401B0B28D5
:1015E000F6D3606A40F400306062052084F8200081
:1015F0000120B0BD606A40F4002060620120B0BDEF
:1016000000206062B0BD000070470000704700001D
:1016100070470000704700007047000070470000EE
:1016200070470000F0B581B004460020009040F201
:101630000800C2F200000268D4E9166048F2B5134F
:1016400037680821C1F64E3381403942A2FB032599
:101650000CD0226813685B0708D5136823F00403D5
:101660001360B160616D41F001016165012181404C
:10167000394208D022685269120604D5B160616D02
:1016800041F00201616504218140394208D022689D
:101690001268920704D5B160616D41F00401616583
:1016A00010218140394217D020680268120713D5F3
:1016B000B16002680168520308D4C90508D4016802
:1016C00021F008010160216C21B905E008033FD435
:1016D000216C09B120468847E16D202000FA01F213
:1016E0003A4241D020680368DB063DD5B26094F8E9
:1016F00035300268052B1BD122F0160202604269C8
:1017000022F080024261226C0AB9A26C1AB102680E
:1017100022F0080202603F208840B060002084F878
:101720003400012084F83500216D002952D157E0A2
:101730000168520310D4C90512D4016821F01001C8
:101740000160002084F83400012084F8350007E0AF
:10175000A16C0029BED1BFE7080301D4616C00E091
:10176000E16B09B120468847606DC8B3606DC00762
:101770002ED0052084F835002068A90A026822F0DE
:1017800001020260009A01328A4200921AD802686D
:10179000D20717D0009A01328A42009212D802680A
:1017A000D2070FD0009A01328A4200920AD802680A
:1017B000D20707D0009A01328A42009202D802680A
:1017C000D207DFD1002084F83400012084F83500EE
:1017D000E16C29B1204601B0BDE8F040084700BFE8
:1017E00001B0F0BD2DE9F041044600F0DBF9ECB1A9
:1017F0000546002084F83400022084F83500206873
:10180000016821F00101016021680868C00711D05A
:1018100000F0C8F9401B0528F6D903252023032032
:10182000636584F83550BDE8F08100BF0120BDE854
:10183000F08100BF086848F23F02CFF21002D4E9FD
:10184000013500EA020C04F10C0898E8C10143EAF2
:101850000C032B431843D4E9072E3043384310437D
:10186000626A40EA0E00042A40EA08031CD1206B99
:10187000D4E90A2E40EA0E00184308604869BEF118
:10188000000F20F0030040EA020040F0040C11D0E9
:10189000B8F5005F36D0B8F1000F45D1022A46D026
:1018A000012A3BD032B942E00B60486920F00700C2
:1018B00040EA020C01F0F8004AF6AB221038CAF6F2
:1018C000AA22A0FB02231A0945F2DE13C0F6000388
:1018D0009A5C40F2FF335F284FF03F00C1F814C01C
:1018E00021EA030100FA02F088BF0431C4E91612AC
:1018F0008860002301250020636584F83550BDE829
:10190000F08100BF032AD5D8012540230120DFE85C
:1019100002F0030E030500BF82E700BFAEF1C07006
:10192000B0FA80F0400904E0032A04D3C2D1CEF318
:1019300000600028BED0012540230120636584F8A3
:101940003550BDE8F081000070B590F834C0BCF1AE
:10195000010F46D04FF0010C80F834C0D0F858E0A9
:1019600090F835C0BCF1010F38D14FF0020C80F86F
:1019700035C04FF0000CC0F854C0D0F800C08468E7
:10198000056CC06DDCF80060402C26F48026CCF895
:101990000060CCF804300B4604BF13460A463F21D2
:1019A00001FA00F0CCF80830CCF80C20CEF8080092
:1019B000DCF8000040F01600CCF800002DB1DCF897
:1019C000000040F00800CCF80000DCF8000040F017
:1019D0000100CCF80000002070BD00BF002180F89D
:1019E0003410022070BD00002DE9F04F82B000F1EC
:1019F0003E4241F6000502F1FF77C4F202050722DC
:101A000043F6004E4FEAB726A84208BF0622C4F2AA
:101A1000010E062E38BF4FEAB72201250027002607
:101A20004FF00008009208E008F101080436B8F110
:101A3000100F07F1020700F0A5800C6805FA08F9FD
:101A400014EA090FF0D0D1F804C003220CF0030B04
:101A5000ABF10104BA40012C6FEA020A10D8826887
:101A6000CC6802EA0A02BC40224382604268CCF39E
:101A7000001422EA090204FA08F42243426005E055
:101A8000BBF1030F02D14FF0030B20E0C2688C685A
:101A900002EA0A02BC402243BBF1020FC26016D127
:101AA0006FF0030202EA58020244D2F820C006F0A6
:101AB0001C050F230C69AB402CEA030304FA05F55F
:101AC0002B431362D1F804C001250CF0030B02680C
:101AD0000BFA07F302EA0A021A435FEACC03026038
:101AE000A2D5002243F644030192C4F202031A680D
:101AF0004FF6084C42F480421A601A68CFF6FF7C19
:101B000002F480420192019A28F00302724452F8D2
:101B10000C3006F00C050F24AC40A343009C04FAE3
:101B200005F52B4342F80C30DEF800204B6842EA02
:101B30000905DC0358BF22EA0905CEF80050DEF89B
:101B400004209C0342EA090558BF22EA0905CEF8A1
:101B50000450DEF80820DC0242EA090543F60C4492
:101B600058BF22EA0905CEF80850C4F201042268E1
:101B70009B0242EA090558BF22EA090525600125B2
:101B800052E700BF02B0BDE8F08F000000690840D6
:101B900018BF012070470000002A08BF09048161B6
:101BA0007047000040F25440C2F2000000687047E5
:101BB00040F2000040F25441C2F20000C2F20001C3
:101BC00000780A68104408607047000080B543F64A
:101BD0000040C4F20200016841F400710160016834
:101BE00041F480610160016841F48071016003206B
:101BF00000F092F80F2000F005F800F027F8002020
:101C000080BD000070B540F20006C2F2000640F24E
:101C100008013278C2F200014FF47A730968B3FB0D
:101C2000F2F20446B1FBF2F1084600F0AFFB0F2CD4
:101C30004FF0010508D838B94FF0FF302146002297
:101C4000002500F03DF87460284670BD80B582B074
:101C5000002043F640010190C4F202014A6842F4B8
:101C600080424A604A6802F480420192019A0090E0
:101C70000868002240F0805008600868002100F0E9
:101C8000805000900098052000F01AF8052002B05E
:101C9000BDE88040AFF30080002848BF7047C1B264
:101CA00000F01F00012202FA00F04EF20012CEF204
:101CB000000242EAD10121F00301086070470000F0
:101CC00010B54EF60C5CCEF2000CDCF80030C3F31D
:101CD000022E8EF00704042C28BF0424BEF1030357
:101CE0004FF0FF3E0EFA04F438BF0023A1439940A1
:101CF0000EFA03F39A43114300F00F0200F1604320
:101D00000901043A03F564436244002848BF02F124
:101D10000C03197010BD00004EF60C51CEF20001FC
:101D20000A684FF6FF031A4060F30A2242F080600F
:101D300040F0FD700860704770B582B000200190DF
:101D400043F64000C4F202000168402641F0805191
:101D500001600068C4F20E2600F0805001900198E6
:101D600047F204050120C4F200053060FFF71AFFB6
:101D7000044600BF2868C00306D4FFF713FF001B0A
:101D8000B0F57A7FF6D90EE001207060FFF70AFF08
:101D9000044600BF2868800308D4FFF703FF001B38
:101DA000B0F57A7FF6D9032002B070BD002002B0F2
:101DB00070BD00002DE9F041002800F08B8043F653
:101DC0000808C4F202080446D8F8F8030D4600F0EB
:101DD0000F00884207D288F8F853D8F8F80300F0CB
:101DE0000F00A84276D12068810717D5410705D595
:101DF000D8F8001041F4E051C8F80010010705D5EB
:101E0000D8F8001041F46041C8F80010D8F800106C
:101E1000A26821F0F0011143C8F80010C0073FD1BB
:101E2000D8F8F80300F00F00A84207D988F8F85353
:101E3000D8F8F80300F00F00A8424BD12068410702
:101E400007D5D8F80010E26821F4E0511143C8F832
:101E50000010000708D5D8F80000216920F4604080
:101E600040EAC100C8F8000000F068F8D8F8001097
:101E700045F2C612C1F30311C0F60002515C40F2F4
:101E8000080220FA01F140F20400C2F200000068EA
:101E9000C2F200021160FFF7B5FE0020BDE8F0813C
:101EA0006068811E022907D258F8081C89015CBFAE
:101EB0000120BDE8F08111E0012807D158F8081C85
:101EC00089035CBF0120BDE8F08107E058F8081CD9
:101ED000890703D40120BDE8F08100BFD8F80010C5
:101EE00021F003010843C8F80000FFF75BFE064637
:101EF00041F28837D8F80000616800F00C00B0EBC0
:101F0000810F8DD0FFF74EFE801BB842F2D903201F
:101F1000BDE8F08140F2080043F60801C2F200007B
:101F2000C4F202010068096845F2D612C1F38221A9
:101F3000C0F60002515CC8407047000010B543F67F
:101F40000404C4F202046068C0F3810142F200405C
:101F5000C0F2F400DFE801F04402081841F200206A
:101F6000C0F27A0010BD00BF216801F03F02216875
:101F700023684902C3F3881116D4A1FB0001002392
:101F8000FEF790F917E000BF216801F03F022168D9
:101F900023684902C3F3881116D4A1FB0001002372
:101FA000FEF780F917E000BF41F20020C0F27A008E
:101FB0004843B0FBF2F021680222C1F3014102EB79
:101FC0004101B0FBF1F010BD41F20020C0F27A00F7
:101FD0004843B0FBF2F02168C1F30271B0FBF1F0AD
:101FE00010BD00002DE9F04182B0002800F096807D
:101FF0000446007843F60006C007C4F202062BD060
:10200000B06800F00C00042820D0B06800F00C008C
:10201000082802D17068400218D4B06800F00C00A3
:102020000C2802D17068400210D46068B0F5803F7F
:1020300007D0B0F5A02F40F03B81306840F48020FD
:102040003060306840F4803030603BE130688003BD
:1020500002D56068002861D02078800722D5B0685A
:1020600010F00C0F11D0B06800F00C00082802D15D
:102070007068400209D5B06800F00C000C2840F0F0
:102080009F807068400200F19B803068800702D515
:10209000E068012842D13068216920F0F80040EA68
:1020A000C1003060207800073CD42078400751D42C
:1020B000A56985B3B06800F00C00082840F0A8803E
:1020C000012D2BD07068E16900F480028A4225D18D
:1020D000216A00F03F028A4220D147F6C071626A4D
:1020E0000140B1EB821F19D1A16A4FF6FF73C903FA
:1020F000994300F44032A1F580318A420ED1E16A61
:1021000000F07062B2EB016F08D1216B00F0E0408B
:10211000B0EB017F02D1002034E100BF012002B00A
:10212000BDE8F0816069002840F20000C4F2472059
:102130005ED00121C0F8801EFFF734FD054600BFC8
:10214000706F8007B1D4FFF72DFD401B0228F7D92F
:10215000C5E000BF306C10F080580AD1002001901B
:10216000306C40F080503064306C00F08050019052
:10217000019847F20007C4F200073868C00511D47F
:10218000386840F480703860FFF70CFD054600BFEA
:102190003868C00506D4FFF705FD401B0228F7D9B3
:1021A0009DE000BFA068012805D0052852D1306FFE
:1021B00040F004003067306F40F00100306753E0BA
:1021C000E068002860D00020C4F2472001210160AF
:1021D000FFF7E8FC054600BF306880073FF55BAFBE
:1021E000FFF7E0FC401B02284FF00300F4D9C9E0E0
:1021F0000021C0F8801EFFF7D5FC0546706F8007F0
:102200007FF553AFFFF7CEFC401B0228F6D966E0FE
:102210000027C4F2472700203866FFF7C3FC022DD1
:1022200005460BD1306880015ED5FFF7BBFC401B33
:1022300002284FF00300F5D9A4E000BF3068800108
:102240007FF569AFFFF7AEFC401B02284FF003009B
:10225000F4D997E0316F002821F001013167316F27
:1022600021F00401316763D0FFF79CFC054641F281
:10227000883700BF306F80076CD4FFF793FC401B9A
:10228000B842F7D92BE000BF0020C4F2472000215C
:102290000160FFF787FC0546306880077FF502AFD5
:1022A000FFF780FC401B02284FF00300F4D969E0DF
:1022B0003168002821F480313160316821F48021B7
:1022C000316051D0FFF76EFC054600BF30688003D7
:1022D0003FF5C2AEFFF766FC401B6428F6D9032029
:1022E00002B0BDE8F08100BF04F11C052FCD246BC6
:1022F000084340EA8210D9034FF6FF729143A1F5DB
:10230000803140EA0560084340EA047070600120B3
:102310003866FFF747FC0446306880013FF5FBAEA6
:10232000FFF740FC001B02284FF00300F4D929E01E
:10233000FFF738FC054641F2883700BF306F800751
:1023400008D5FFF72FFC401BB8424FF00300F5D92A
:1023500018E000BFB8F1000F7FF4AAAE306C20F097
:1023600080503064A4E600BFFFF71CFC05463068CF
:1023700080037FF571AEFFF715FC401B64284FF01A
:102380000300F4D902B0BDE8F0810000411E002036
:10239000B0EB116F1CBF012070474EF21002CEF25D
:1023A000000251604EF62351CEF20001F0230B7073
:1023B000072190601160704770470000704700006F
:1023C000B0B590F83C20012A04BF0220B0BD01F155
:1023D00008053CCDD1E900CE23F47C5322F47052A1
:1023E0001A432EF4F0431A432CF4E0431A4324F426
:1023F000C0431A432A43C96922F480420368114347
:102400005964002180F83C100846B0BD10B590F822
:102410003C20012A4FF0020251D080F83D20026892
:10242000D2F804E0D2F808C00C682EF07003234301
:1024300041F2FF74C4F20004A24253600EDC40F289
:10244000FF73C4F200039A4216DCB2F1804F2BD026
:1024500040F20043C4F2000324E000BF40F2FF3327
:10246000C4F201039A4213DC41F60003C4F20003F4
:102470009A4219D0002313E040F60003C4F200038F
:102480009A4211D040F60043C4F200030AE000BFB4
:1024900044F20003C4F201039A4205D040F2004323
:1024A000C4F201039A4204D149682CF08003194315
:1024B00091600121002280F83D1080F83C201046F8
:1024C00010BD0000002804BF0120704710B504466D
:1024D00090F83D0028B9002084F83C00204600F028
:1024E0001FF8022084F83D002068211D01F078F8D3
:1024F000012084F8460084F83E0084F83F0084F808
:10250000400084F8410084F8420084F8430084F8D5
:10251000440084F8450084F83D00002010BD000010
:1025200080B582B0006841F2FF31C4F200018842F8
:1025300020DC40F2FF71C4F2000188423ADCB0F1C5
:10254000804F79D040F20041C4F2000188420ED1A0
:102550000020019043F64000C4F20200016841F0FF
:1025600002010160006800F002000190019802B0D1
:1025700080BD00BF4FF6FF71C4F2000188423FDC0E
:1025800041F20041C4F2000188426FD041F60001DF
:10259000C4F200018842EAD10020019043F64000D5
:1025A000C4F20200016841F040010160006800F0DF
:1025B00040009CE040F60001C4F2000188426FD068
:1025C00040F60041C4F200018842D0D100200190C1
:1025D00043F64000C4F202000168002241F0080105
:1025E00001600068002100F008000190019832208D
:1025F000FFF766FB322002B0BDE88040FFF74CBB1E
:1026000040F20041C4F20101884263D00021C4F2CB
:1026100001018842ABD10020019043F64000C4F292
:102620000200416841F001014160406800F0010092
:102630000190019802B080BD0020019043F6400057
:10264000C4F202000168002241F00101016000684B
:10265000002100F00100019001981C20FFF730FBE1
:102660001C2002B0BDE88040FFF716BB002001909F
:1026700043F64000C4F202000168002241F020014C
:1026800001600068002100F02000019001983720CF
:10269000FFF716FB372002B0BDE88040FFF7FCBA19
:1026A0000020019043F64000C4F2020001680022BD
:1026B00041F0040101600068002100F00400019075
:1026C00001981E20FFF7FCFA1E2002B0BDE88040F2
:1026D000FFF7E2BA0020019043F64000C4F2020086
:1026E000416841F002014160406800F00200019041
:1026F00001982B2000210022FFF7E2FA2B2002B0E4
:10270000BDE88040FFF7C8BA90F83D1001291CBF12
:1027100001207047022180F83D10006841F2FF71EE
:10272000C4F2000188420DDC40F2FF71C4F20001E6
:10273000884215DCB0F1804F2AD040F20041C4F24B
:10274000000123E040F2FF31C4F20101884213DCB2
:1027500041F60001C4F20001884219D0002113E0C3
:1027600040F60001C4F20001884211D040F6004159
:10277000C4F200010AE000BF44F20001C4F201010A
:10278000884205D040F20041C4F20101884206D1DE
:10279000816801F00701062904BF00207047016825
:1027A00041F00101016000207047000090F83D10E9
:1027B00001291CBF01207047022180F83D100068EC
:1027C00041F2FF72C168C4F20002904241F001017F
:1027D000C1600DDC40F2FF71C4F20001884215DCDB
:1027E000B0F1804F2AD040F20041C4F2000123E052
:1027F00040F2FF31C4F20101884213DC41F60001CE
:10280000C4F20001884219D0002113E040F6000113
:10281000C4F20001884211D040F60041C4F2000128
:102820000AE000BF44F20001C4F20101884205D071
:1028300040F20041C4F20101884206D1816801F0F2
:102840000701062904BF00207047016841F001011B
:1028500001600020704700000146006841F211133A
:10286000C26822F00102C260026A1A4204D0012248
:10287000002081F83D207047026A40F244431A422A
:10288000F5D1026822F0010202600122002081F8E5
:102890003D20704780B590F83C20012A4FF002029D
:1028A00000F0BF8080F83D20D0F800C04FF677726E
:1028B000DCF8083023EA0202CCF808200B683F2B32
:1028C0001CDD5F2B20DD602B50D0B3F5005F6DD099
:1028D000702B40F0A080D1E901E3C968DCF8082042
:1028E00043EA0E0322F47F4243EA01211143CCF86C
:1028F0000810DCF8081041F077018AE01F2B29DC72
:1029000063B3102B2AD086E0402B63D0502B40F0CD
:102910008280D1F804E0C968DCF82030DCF820209F
:1029200022F00102CCF82020DCF8182022F0F0027E
:1029300042EA011123F00A0242EA0E02CCF8181012
:10294000CCF82020DCF8081041F0570121F02001DC
:102950005FE000BF202B01D0302B5CD1DCF80810E9
:1029600021F07001194341F0070152E0D1F804E071
:10297000C968DCF8203023F01003CCF82030DCF8F4
:102980001830DCF8202023F4704322F0A00243EA40
:10299000013142EA0E12CCF81810CCF82020DCF8F5
:1029A000081041F0670121F0100132E0D1E901E3A4
:1029B000C968DCF8082043EA0E0322F47F4243EAA8
:1029C00001211143CCF80810DCF8081041F48041D3
:1029D0001FE000BFD1F804E0C968DCF82030DCF863
:1029E000202022F00102CCF82020DCF8182022F070
:1029F000F00242EA011123F00A0242EA0E02CCF888
:102A00001810CCF82020DCF8081041F0470121F024
:102A10003001CCF808100121002280F83D1080F828
:102A20003C20104680BD00007047000010B50168D2
:102A300004460869800744BFC8685FEA807039D4DB
:102A40000869400744BFC8685FEA40703ED408691F
:102A5000000744BFC8685FEA007045D40869C00633
:102A600044BFC8685FEAC0604AD40869C0071CBF99
:102A7000C8685FEAC07051D10869000644BFC868E1
:102A80005FEA006052D40869400644BFC8685FEA44
:102A9000406053D40869800646BFC8685FEA80601A
:102AA00010BD6FF0200220460A61BDE81040FFF71C
:102AB00085BC00BF6FF002000861012020778869A3
:102AC000800743D02046FFF7AFFF45E06FF00400DA
:102AD000086102202077886910F4407F40D02046AA
:102AE000FFF7A2FF42E000BF6FF00800086104207A
:102AF0002077C86980073DD02046FFF795FF3FE06B
:102B00006FF01000086108202077C86910F4407F3A
:102B10003AD02046FFF788FF3CE000BF6FF001008D
:102B20000861204600F0A0FA2168A5E76FF0800058
:102B300008612046FFF740FC2168A4E76FF04000E1
:102B40000861204600F0AEFC2168A3E7204600F0B3
:102B50006DF8204600F0A6F92168002020776FE785
:102B6000204600F063F8204600F09CF92168002020
:102B700020776CE7204600F059F8204600F092F9E3
:102B800021680020207769E7204600F04FF82046B2
:102B900000F088F921680020207766E780B586B0CC
:102BA000006840F20042C4F2000200219042CDE9E8
:102BB0000411CDE90211019118D00021C4F20101E4
:102BC000884230D10020009043F63000C4F2020069
:102BD000016841F00101016000684FF4807100F06C
:102BE000010000900098012010E000BF43F6300083
:102BF0000091C4F20200016841F001010160006827
:102C0000402100F001000090009802200191022173
:102C10000291002105900020CDE90311C4F20200C9
:102C200001A9FEF7E1FE06B080BD0000704700007C
:102C30002DE9F04390F83C30012B04BF0220BDE8A1
:102C4000F0834FEAB202032A00F2F580DFE802F0D7
:102C5000023E7EBE036840F200471A6A43F4806574
:102C600022F001021A621C6A1A46D3F804E052F8F4
:102C700018CF8E6824F00204C4F20107BD4244EA72
:102C8000060405D1CE6824F00C0426F00406344373
:102C90000E68BD4207D1D1E905572EF4407E45EAC2
:102CA0000E0545EA070E2CF073073743C3F804E01E
:102CB0009F614F6809695F631C629F6947F008075D
:102CC0009F619F6927F004079F61B1E0036840F2AC
:102CD00000481A6A43F4806522F010021A621C6AE6
:102CE0001A46D3F804C052F818EF8F6824F0200475
:102CF000C4F20108454544EA071407D1CF686FF0D4
:102D0000400624F0C00406EA07163443D1F80090C8
:102D1000454506D1D1E905562CF440672E4347EAD4
:102D2000860C2EF4E64747EA0927C3F804C09F61E2
:102D30004F6809699F631C629F6947F400679F6140
:102D40009F6927F480679F6171E000BF036840F2CC
:102D500000481A6A43F4806522F480721A621C6A81
:102D60001A46D3F804C052F81CEF8F6824F400749C
:102D7000C4F20108454544EA072408D1CF6840F26F
:102D8000FF463F0224F4406427EA06063443D1F8A4
:102D90000090454506D1D1E905562CF440572E4305
:102DA00047EA061C2EF0730747EA0907C3F804C078
:102DB000DF614F680969DF631C62DF6947F008075C
:102DC000DF61DF6927F00407DF6131E0036840F26B
:102DD00000451A6A43F4806722F480521A621A4648
:102DE000D3F820C05C6852F81CEFD1F800808E68E0
:102DF000C4F20105AF4204D14D6924F4804444EA91
:102E000085142CF4005747EA06372EF4E64646EAC6
:102E100008265C60DE614E6809691E641F62DF6916
:102E200047F40067DF61DF6927F48067DF6109022B
:102E3000136819431160002180F83C100846BDE872
:102E4000F0830000002804BF0120704710B504463D
:102E500090F83D0028B9002084F83C00204600F09E
:102E60001FF8022084F83D002068211D00F0B8FB07
:102E7000012084F8460084F83E0084F83F0084F87E
:102E8000400084F8410084F8420084F8430084F84C
:102E9000440084F8450084F83D00002010BD000087
:102EA000704700007047000041B1082910D0042984
:102EB00014BF00F1410200F13F020BE090F83E2008
:102EC000012A1CBF01207047022280F83E2013E037
:102ED00000F140021278012A1CBF01207047022233
:102EE000082907D0042914BF80F8412080F83F202A
:102EF00002E000BF80F84020006801F01F010122BD
:102F0000036A02FA01F123EA01020262026A114332
:102F100041F2FF72C4F20002904201620CDC40F206
:102F2000FF71C4F20001884214DCB0F1804F37D049
:102F300040F2004116E000BF40F2FF31C4F201014F
:102F4000884215DC41F60001C4F20001884227D016
:102F5000002115E040F60001C4F2000188421FD0B4
:102F600040F60041C4F20001884219D01FE000BFC2
:102F700044F20001C4F20101884211D040F2004144
:102F8000C4F20101884212D1416C40F2004340F486
:102F90008062C4F2010341F400419A42416406D1C7
:102FA000816801F00701062904BF0020704701680D
:102FB00041F00101016000207047000010B5026877
:102FC00001F01F0E4FF0010C146A0CFA0EF324EA04
:102FD0000303136240F20043D2F820C042F480643D
:102FE000C4F201039C42C2F820C009D1136A41F225
:102FF0001114234204D1136A40F2444423420FD0F7
:10300000136A41F21114234213D1136A40F244446B
:1030100023420ED1136823F00103136009E000BFBF
:10302000536C23F400435364136A41F21114234296
:10303000EBD008290CD0042910D000294FF0010151
:1030400014BF80F8411080F83E10002010BD00BF72
:10305000012180F84010002010BD00BF012180F840
:103060003F10002010BD00002DE9F04F85B0006832
:1030700000F140404FEAB020062800F2F081DFE87E
:1030800010F00700EE01B700BF00EE0113012701A9
:1030900040F27001C2F20001087A002800F0DF81DE
:1030A000486A01F0E3FF044640F27000C2F20000FB
:1030B00040F23816008FC2F200060190306B0D46C8
:1030C000029040F27000C2F20000807CD6E905B1A7
:1030D0000490B0680091716A9FEDED0BB6F800A006
:1030E000039100F1020853EC102B2046294601F011
:1030F000F6FF9FEDE50B814653EC102B2046294649
:1031000002F002F89FEDE40B0746002818BF47467F
:1031100053EC102B20462946B9F1000F18BF474643
:1031200001F0F2FF002818BF4746022F4FF00001C0
:103130004FF00002B76088BF0121032F38BF012282
:103140003271019A0020AC2A4FF0000288BF0BF1C7
:103150000202009B0A2A03F10203C6E905234FF08D
:10316000000203FB0AF338BF0122C92B4FF0000312
:1031700038BF01231A40029B32740233336303FBCE
:103180000AF3B3F5FA6F4FF0000398BF0123049FD1
:1031900086F82C30002F4FF00007039D08BFAF1CAE
:1031A000776207FB0AF7B7F57A7F4FF000078CBF0D
:1031B00001270120707761EA0200384323EA000109
:1031C00040F27003C2F20003187D0029B17000F0D4
:1031D0004581002800F04381002240F21420C2F211
:1031E000000000211A7505B0BDE8F04FFFF75CBE86
:1031F00040F27000C2F20000016B013101632EE168
:1032000040F60004C4F2020420462021FEF7BEFC72
:1032100040F27006C2F20006707220464FF48071D0
:10322000FEF7B4FCA4F58065F07328464021FEF754
:10323000ADFC707520461021FEF7A8FCB075204645
:103240004021FEF7A3FCF07528464FF48061FEF79D
:103250009DFCB07220468021FEF798FC307628460F
:103260000121FEF793FCF07220460421FEF78EFC4C
:10327000707320464FF40051FEF788FC70762846A4
:103280001021FEF783FCF179B074022900F0A680CA
:10329000012940F0AD8040F2EC20C2F2000000684D
:1032A0004FF448714163B6E040F27007C2F2000784
:1032B000787AF97BBA7E002818BF012087F85C0075
:1032C000B1FA81F0400987F85D00EAB1012031E0F0
:1032D00040F27001C2F200018A7EC88B002A1CBF36
:1032E0000130C88380B240F615129042C0F0B7801A
:1032F000002240F25C20C2F200008A7605B0BDE8F0
:10330000F04FFFF7A9BA00BF387E01284FF0000048
:1033100010D197F8591097F92020B1FA81F1490995
:10332000002A4FF00003C8BF01231940072AB8BF85
:103330000120084087F85E007878797987F8640082
:1033400040F238103B7BC2F2000087F85F10017931
:10335000067FFA7987F86630037C87F86010002EC4
:103360004FF0000187F86520827F87F8613018BF31
:10337000002A03D0417F002918BF012197ED090AD7
:103380009FED471A90F82C0020EE010ABDEEC00A0E
:1033900087F8630010EE100A07F1480487F86210FE
:1033A00007F15C01A7F868002046082200F078FCCD
:1033B00040F2DC05C2F2000505F134063046FDF7A7
:1033C00089FE0028FAD007F1340330462946224608
:1033D00005B0BDE8F04FFDF71BBD00BF40F2EC208B
:1033E000C2F2000000684FF4FA61416313E000BFCD
:1033F000307880B140F2EC2196F85600C2F200011C
:1034000009684FF4FA6200284FF0000008BF4FF43B
:1034100048724A633070706A01F028FE9FED1A0B03
:1034200053EC102B01F062FE50B9717A0120012992
:10343000307308BF0220F07105B0BDE8F08F00BF07
:10344000707A78B1F07B01280CD0707B50B1707C21
:1034500040B10220307305B0BDE8F08F40B105B037
:10346000BDE8F08F0320307305B0BDE8F08F00BFDA
:10347000012240F21420C2F2000000211A7505B0AA
:10348000BDE8F04FFFF79ABD4E62105839B4E03FE7
:10349000C3F5285C8FC22140666666666666F6BF25
:1034A0000000C84270470000FEE70000FEE7000091
:1034B000FEE7000070470000704700007047000002
:1034C000FEF776BB80B594B0002043F64001CDE90D
:1034D0000B00CDE909000690CDE90400CDE902001A
:1034E0000190C4F202010A6842F080520A60096841
:1034F00001F0805101910199019047F20000C4F25E
:103500000000016841F44041016000684FF480010F
:1035100000F4404001900198012007904FF4803062
:103520000E910421089002200F91B4210D90CDE955
:103530001010CDE9120007A8FEF754FD002818BFAF
:10354000FCF7BCFFFEF7F8FB002818BFFCF7B6FF3E
:103550000F20029002200390002004904FF4A0500E
:1035600005904FF48050069002A80521FEF722FC3A
:10357000002818BFFCF7A2FF14B080BD4EF688509B
:10358000CEF20000016841F4700101607047000054
:1035900040F2A420C2F20000FFF748BA40F23430F3
:1035A000C2F20000FFF742BA40F27C30C2F20000E3
:1035B000FFF73CBA40F2C430C2F20000FFF736BA5F
:1035C00080B540F20C40C2F20000FFF72FFA40F243
:1035D0005C20C2F20000BDE88040FFF727BA00007F
:1035E00010B540F6FF3E0368C4F2000E40F2004CF6
:1035F0007045C4F2010C27DCB0F1804F31D040F2AD
:103600000042C4F2000290422BD040F60002C4F205
:103610000002904225D041F6FF72C4F200029042AF
:1036200029DC70453CDCB0F1804F5FD040F20042B5
:10363000C4F20002904259D040F60002C4F20002E7
:10364000904253D056E000BF40F60042C4F2000260
:10365000904206D0604504D00022C4F2010290429C
:10366000D9D14A6823F07003134341F6FF72C4F2C4
:1036700000029042D5DD43F6FF72C4F2010290428F
:1036800022DC42F20002C4F2000290422ED000225C
:10369000C4F20102904229D0604527D02AE000BF41
:1036A00040F60042C4F2000290421FD041F60002F0
:1036B000C4F20002904219D041F60042C4F2000266
:1036C000904213D016E000BF44F20002C4F201029F
:1036D00090420BD044F60002C4F20102904205D0A1
:1036E00044F20042C4F20102904203D1CA6823F4BA
:1036F0004073134323F080024B69D1F800E08C68DB
:103700001A430260C46240F48062C0F828E0624557
:1037100004BF096901630121416110BDFEE700009A
:103720002DE9F04740F2700740F23434C2F200074E
:1037300002200025C2F200046FF00106F8717D70CE
:1037400005E000BF2046FFF787F8787B60BB787AFA
:10375000002800F07F8297F85900002840F07A8214
:1037600097F920000128C0F27582062800F37282C2
:1037700020683D6306612046FFF718F8386B312852
:10378000E0D800BF30BF386B3128DBD830BF386B92
:103790003128D7D830BF386B3128D3D830BF386BF9
:1037A0003228EFD3CEE700BF0120787040F214201A
:1037B000C2F2000000210025FFF700FC20686FF036
:1037C00001013D6301612046FEF7F0FF386B0009FF
:1037D000182813D830BF386B000918280ED830BF0E
:1037E000386B0009182809D830BF386B0009182831
:1037F00004D830BF386BB0F5C87FEBD340F2343417
:10380000C2F200042046FFF727F8787B012800F079
:1038100021820220787040F21420C2F200000021C0
:103820000025FFF741FB20686FF001013D63016156
:103830002046FEF7BBFF386B0009182814D800BFDC
:1038400030BF386B000918280ED830BF386B00091C
:10385000182809D830BF386B0009182804D830BFA1
:10386000386BB0F5C87FEBD340F2343AC2F2000AAD
:103870005046FEF7F1FF787B002800F0EB819FEDCA
:10388000D00B03204FF000086FF0010956EC105BDD
:10389000787000BF787A002800F0DC8197F8590032
:1038A000002840F0D78197F920000128C0F2D2818A
:1038B0000628C8BFBDE8F087DAF80000C7F83080F6
:1038C000C0F810905046FEF771FF386B31280FD8C2
:1038D00030BF386B31280BD830BF386B312807D850
:1038E00030BF386B312803D830BF386B3228EFD364
:1038F0005046FEF7B1FF786A01F0B8FB3C8F2A46CC
:10390000334601F001FC0028C4D1042CC2D340F29C
:103910000008C4F2020804207870012008F500694C
:10392000B87348464FF480510122FEF735F9DAF8B2
:10393000000000266FF001053E6305615046FEF76A
:1039400035FF386B31280FD830BF386B31280BD892
:1039500030BF386B312807D830BF386B312803D8D7
:1039600030BF386B3228EFD35046FEF775FF48461C
:103970004FF480510022BE73FEF70EF940464FF41B
:1039800080610122FEF708F906E000BF5046FEF70D
:1039900063FFF87B012859D1787A38B3B87A0128C7
:1039A00024D097F8590008BB97F9200001281DDBA7
:1039B00007281BDADAF800003E6305615046FEF77F
:1039C000F5FE386B3128E1D830BF386B3128DDD8AF
:1039D00030BF386B3128D9D830BF386B3128D5D8B3
:1039E00030BF386B3228EFD3D0E700BF40F214204D
:1039F000C2F2000000210024FFF7E0FADAF800002C
:103A00006FF001013C6301615046FEF7CFFE386B59
:103A100080087C2813D830BF386B80087C280ED8EB
:103A200030BF386B80087C2809D830BF386B8008DD
:103A30007C2804D830BF386BB0F5FA7FEBD340F266
:103A40003430C2F20000FEF707FF10E140464FF4A9
:103A5000806100220025FEF79FF801200521F87102
:103A600079703874404680210122FEF795F83220A3
:103A700000F0A0F9404680210022FEF78DF84FF4B7
:103A80007A703D7400F096F90620787048464FF43D
:103A9000806100227D74FEF77FF84FF4966000F09D
:103AA00089F96FF0010405E05046FEF7D5FE388F26
:103AB000042837D2F87B012828D0B87A30B3787A36
:103AC00020B397F8590008BB97F9200001281DDBA7
:103AD00007281BDADAF800003D6304615046FEF760
:103AE00065FE386B3128DFD830BF386B3128DBD822
:103AF00030BF386B3128D7D830BF386B3128D3D896
:103B000030BF386B3228EFD3CEE700BF40F214202D
:103B1000C2F200000021FFF751FA4FF4FA7000F0F2
:103B200049F9A4E04FF47A7000F044F90120787468
:103B300048464FF480610122FEF72EF800246FF012
:103B4000010505E05046FEF787FE388F03283BD974
:103B5000F87B012828D0B87A30B3787A20B397F868
:103B6000590008BB97F9200001281DDB07281BDA44
:103B7000DAF800003C6305615046FEF717FE386B2B
:103B80003128DFD830BF386B3128DBD830BF386BF5
:103B90003128D7D830BF386B3128D3D830BF386BF5
:103BA0003228EFD3CEE700BF40F21420C2F200006B
:103BB0000021FFF703FA4FF4FA7000F0FBF856E02B
:103BC0004E62105839B4E03F4FF47A7000F0F2F8CA
:103BD000072078700220F8714FF4966000F0EAF840
:103BE000C82000F0E7F8F87B012835D0787A98B340
:103BF00097F8590080BB97F9200001282CDB072893
:103C00002ADA322000F0D6F8388F0428E8D30320CF
:103C1000F8714FF4FA6000F0CDF8082078700120B8
:103C2000787164245A2000F0C5F897F82100022822
:103C300010D0013CF6D10020787140F21420C2F27D
:103C400000000021FFF7BAF94FF4FA7000F0B2F863
:103C50000DE000BFBDE8F08740F21420C2F2000082
:103C60000021FFF7ABF94FF4FA7000F0A3F840F22F
:103C70001420C2F200000021BDE8F047FFF714B99C
:103C8000032A3CBF6FF0150070470A7802704A782B
:103C90004270897801F001018170002070470000B6
:103CA000082A3CBF6FF01500704700224260026096
:103CB0000A7802F0010202704B7863F3410202704D
:103CC0008B7863F382020270CB7863F3C3020270D5
:103CD0000B7963F3041202704B7963F3451202709F
:103CE0008B7963F386120270CB7942EAC3120270B9
:103CF0000A7A42704A7A02F00F0282708B7A42EAA4
:103D0000031282708989A0F8031008207047000010
:103D1000082A3CBF6FF0150070470A7802804B7884
:103D200042EA032202808A784280CB7842EA032268
:103D300042800A7902F0010202710A79C2F340025C
:103D400042710979C1F38001817100207047000040
:103D5000022A3CBF6FF0150070470A7802F001029A
:103D600002700A78C2F3400242700A78C2F38002FD
:103D700082700A78C2F3C002C2700A78C2F30012DD
:103D800002710A78C2F3401242710A78C2F38012BB
:103D900082710A78D209C2714A7802F00102027275
:103DA0004A78C2F3400242724978C1F380018172BD
:103DB00000207047B0B540F270050446C2F200051D
:103DC0000020286340F23430C2F2000001686FF036
:103DD00001020A61FEF7EAFC286BA04210D200BF84
:103DE00030BF286BA0420BD230BF286BA04207D255
:103DF00030BF286BA04203D230BF286BA042EFD364
:103E000040F23430C2F20000BDE8B040FEF724BDFD
:103E100096B043F6300840F6000BC4F20208C4F234
:103E2000020BFDF7D3FEFFF74DFB0024CDE9034461
:103E30000894D8F8000041F20B6140F00400C8F883
:103E40000000D8F80000002200F004000890089854
:103E50000894D8F8000040F08000C8F80000D8F8B6
:103E6000000000F08000089008980894D8F800003E
:103E700040F00100C8F80000D8F8000000F0010090
:103E8000089008980894D8F8000040F00200C8F89C
:103E90000000D8F8000000F002000890089858468A
:103EA000FDF77AFEABF5006630464FF490610022D4
:103EB0004FF49069FDF770FE42F6F4106D46CDE9BF
:103EC0000004584629460294FDF78EFD40F20B602F
:103ED0000090012758462946CDE901740394FDF767
:103EE00083FD30462946CDE90097CDE90244FDF730
:103EF0007BFD44F25540CDE90004ABF580602946D6
:103F00000294FDF771FD02204FF48056CDE90204C2
:103F100058462946CDE90067FDF766FD40F21420BA
:103F2000ABF58431C2F20000C7231594CDE91344E8
:103F3000CDE910440E94CDE90C44CDE90A44CDE915
:103F40000844CDE90644CDE90444CDE90244CDE975
:103F5000004444F24F6280E81600C0E90334C0E92F
:103F60000544FEF7AFFA002818BFFCF7A7FA40F2A5
:103F70001420C2F2000012A91296FEF78BFC002852
:103F800018BFFCF79BFA40F21420C2F20000FEF7C3
:103F900059FF002818BFFCF791FA40F214200024C2
:103FA000C2F2000010A9CDE91044FEF72FFA002854
:103FB00018BFFCF783FA602008906320CDE909045C
:103FC00040F21420C2F2000008A90022CDE90B44FF
:103FD000CDE90D44FEF72CFE002818BFFCF76EFA61
:103FE0004FF40050059040F214200024C2F200006B
:103FF00069460494CDE90244CDE900440794FEF7F4
:10400000DFF9002818BFFCF759FA40F21420C2F279
:104010000000FEF7C3FD40F27C30ABF5FE31C2F28A
:10402000000063230394CDE90144CDE9084440F244
:10403000833280E81600C0E903348461FEF742FA57
:10404000002818BFFCF73AFA4FF48050009040F275
:104050007C30C2F200006946FEF71CFC002818BF45
:10406000FCF72CFA40F27C30C2F2000008A9FEF7FF
:10407000CDF9002818BFFCF721FA40F2EC2000210E
:10408000ABF50132C2F20000632344F24F670B919B
:10409000CDE90911CDE912110691CDE90411CDE95F
:1040A0000211CDE90011C0E90023C0E90217016146
:1040B0008161FEF707FA002818BFFCF7FFF94FF4FB
:1040C0008050089040F2EC20C2F2000008A9FEF7F0
:1040D000E1FB002818BFFCF7F1F940F2EC20C2F236
:1040E0000000FEF7AFFE002818BFFCF7E7F920201C
:1040F000129040F2EC200024C2F2000012A91394A6
:10410000FEF784F9002818BFFCF7D8F96020CDE944
:10411000000440F2EC20C2F2000069460022029442
:104120000494FEF785FD002818BFFCF7C7F940F29C
:10413000EC20C2F20000FEF731FD40F2DC00ABF5EE
:10414000D231C2F2000040F8341F092100244FF49C
:1041500000324FF00123C0E90114C0E90342C0E975
:1041600005438483FDF7FAF8002818BFFCF7A6F989
:1041700040F2A420C2F200004FF0804140F2CF7321
:104180000394CDE90144CDE9084440F2833280E84C
:104190001600C0E903348461FEF794F9002818BFC3
:1041A000FCF78CF94FF48050009040F2A420C2F24A
:1041B00000006946FEF76EFB002818BFFCF77EF989
:1041C00040F2A420C2F2000008A9FEF71FF900285F
:1041D00018BFFCF773F940F234300021ABF5003220
:1041E000C2F2000040F2833363270391CDE901114D
:1041F000CDE90811C0E90023C0E90217016181611E
:10420000FEF760F9002818BFFCF758F94FF480500A
:10421000009040F23430C2F200006946FEF73AFBEB
:10422000002818BFFCF74AF940F23439C2F20009FD
:1042300008A94846FEF7EAF8002818BFFCF73EF93F
:104240002020009040F2C4300021ABF5FA32C2F2D7
:10425000000040F2833341F287370191C0E9002327
:10426000C0E902178161FEF72DF9002818BFFCF79D
:1042700025F940F2C430C2F200006946FEF7C6F8E4
:10428000002818BFFCF71AF940F25C200021ABF5BA
:10429000F832C2F2000040F2833363270391CDE984
:1042A0000111C0E90023C0E9021701618161FEF735
:1042B00009F9002818BFFCF701F94FF4805000906D
:1042C00040F25C20C2F200006946FEF7E3FA0028E3
:1042D00018BFFCF7F3F800240094D8F80000002180
:1042E00040F48000C8F80000D8F80000002200F474
:1042F0008000009000983820FDF7E2FC3820FDF7A0
:10430000CBFC40F23815C2F20005ABF568412846F7
:1043100040F8341F4FF4803101264FF080524FF0A7
:1043200060630394047680F82040C0E90A32C661D5
:1043300080F83060C0E90114C0E903464661FCF72B
:1043400077FB002818BFFCF7B9F8CDE90066042018
:1043500005F13406029069463046FCF75DFA002804
:1043600018BFFCF7ABF82020089040F20C40002169
:10437000ABF58232C2F2000044F24F63C7270391CB
:10438000CDE901110991C0E90023C0E90217C0E994
:1043900004118161FEF796F8002818BFFCF78EF82B
:1043A0004FF48050009040F20C40C2F20000694689
:1043B000FEF770FA002818BFFCF780F840F20C40B6
:1043C000C2F2000008A9FEF721F8002818BFFCF788
:1043D00075F800F0E7F940F27007C2F2000707F144
:1043E0001C01304601220126FCF72AFCFF2500248F
:1043F0004FF0020A6FF0010897F8591097F9200062
:1044000000297D704CD101284ADB062848DC58463B
:1044100008210122BE70FDF7BFFB97F8210001388B
:104420000428E9D8DFE800F01E9EB61C040000BF97
:1044300058464FF400710122FE70FDF7ADFB0820D5
:104440003871584601210022BC71FDF7A5FB787A2E
:104450003E72012814BFFE7187F807A0CCE700BFA9
:10446000CAE700BF58464FF400710122FE70FDF705
:1044700093FB584601210022BE80BC71FDF78CFBE6
:10448000787A012840F20110A7F80700B4D1B87A71
:104490000028B1D1F87A0028AED1FFF741F9ABE797
:1044A000012918BF0728A7D1584608210022BC704F
:1044B000FDF772FB58464FF400710022FC70FDF7C7
:1044C0006BFB584601210022BC71FDF765FB787A31
:1044D000BD8038B9B87A28B9F87A18B900F0C6F8AA
:1044E0008AE700BF97F8210000287FF485AF387B6A
:1044F00003284FF0FE0038717FF47EAF40F21420A5
:10450000C2F200000021FEF759FDD9F800003C631B
:10451000C0F810804846FEF749F9386B80087C28BF
:1045200014D800BF30BF386B80087C280ED830BF4D
:10453000386B80087C2809D830BF386B80087C280D
:1045400004D830BF386BB0F5FA7FEBD34846FEF79E
:1045500083F940F21420C2F200000021FEF7A4FC0F
:104560004AE700BF58464FF400710122FE70FDF784
:1045700013FB58460121002287F804A0BC71FDF707
:104580000BFB787A3E72012812BFFE710320F8718E
:1045900032E700BF58464FF400710122FE70FDF76C
:1045A000FBFA04203871584601210022BC71FDF746
:1045B000F3FA40F20310A7F80700D9F800003C63B3
:1045C000C0F810804846FEF7F1F8386BC7280FD8BE
:1045D00030BF386BC7280BD830BF386BC72807D817
:1045E00030BF386BC72803D830BF386BC828EFD32B
:1045F0004846FEF731F997F8220001287FF4FCAE17
:1046000058464FF400710122FE70FDF7C5FA1020E4
:104610003871584601210122BE71FDF7BDFAD9F863
:1046200000003C63C0F810804846FEF7BFF8386BC6
:10463000C7280FD830BF386BC7280BD830BF386BAE
:10464000C72807D830BF386BC72803D830BF386BAE
:10465000C828EFD34846FEF7FFF8787A3C72012865
:1046600014BFFE7187F807A0C6E600002DE9F043ED
:1046700081B040F2700740F60008C2F20007142033
:10468000C4F2020878700120B87340464FF480519C
:104690000122FDF781FAA8F5006948464FF48061D0
:1046A0000122FDF779FA40F234360024C2F2000606
:1046B0006FF0010506E000BF3046FEF7CDF8F87B4D
:1046C000012839D1787A01282AD097F8590097F82B
:1046D0002010013818BF0120073918BF01210842F6
:1046E0001ED1387B01281BD130683C630561304600
:1046F000FEF75CF8386B3128DED800BF30BF386B6E
:104700003128D9D830BF386B3128D5D830BF386B75
:104710003128D1D830BF386B3228EFD3CCE700BF77
:10472000002340464FF480510022BB7301B0BDE826
:10473000F043FDF731BA00BF306800246FF001018B
:104740003C6301613046FEF731F8386B31280FD8F1
:1047500030BF386B31280BD830BF386B312807D8C1
:1047600030BF386B312803D830BF386B3228EFD3D5
:1047700040F23430C2F20000FEF76EF840464FF4CB
:1047800080510022BC73FDF707FA48464FF4806160
:104790000022FDF701FA152078700120787101B030
:1047A000BDE8F08310B58AB000F062F840F2DC009A
:1047B000C2F20000232108220160002102610122CF
:1047C00000F13404C0E902110175CDE90611CDE90B
:1047D0000411CDE90211CDE90011CDE908216946A6
:1047E0002046FCF775FB002818BFFBF767FE204644
:1047F000FCF7DCFE002818BFFBF760FE2046022114
:10480000FCF7EEFA002818BFFBF758FE40F27C30A8
:10481000C2F20000FDF7CAFF40F25C20C2F20000C5
:10482000FDF7C4FF40F2C430C2F20000FDF7BEFF46
:1048300040F21420C2F200000021FEF735FB40F2E6
:104840000C40C2F20000FDF75FFF40F2A420C2F26C
:104850000000FDF7ABFF40F2EC20C2F2000001685F
:104860004FF4D7724A630021FEF71EFB0AB010BD59
:1048700070B540F27005C2F200050026FF20C5E9C0
:104880000A662E632E716870FDF744FB40F2A42186
:10489000C2F200014A684000C9680132B0FBF2F080
:1048A0000131B0FBF1F04FF47A71B1FBF0F040F25E
:1048B0003811C2F200010880012040F2011240F6D6
:1048C000000448800871C1E902660874C1E9056600
:1048D0000877A1F81D20C1E908668E6281F82C00D6
:1048E0000E634FF08071C4F20204E871C5F81E1027
:1048F000E873A5F81920A5F8112020464FF480612F
:1049000001226E716E72A5F81560EE756E816E7380
:10491000FDF742F9A4F50060802100222E74FDF716
:104920003BF9204608210022AE70FDF735F92046FC
:1049300001210022AE71FDF72FF920464FF480517E
:104940000022AE73FDF728F96E62C5E91066C5E96D
:10495000126670BD21F0004201F00043A2F16052E6
:10496000B2F5801F28BFD2F17F6C0BD95FEA001C23
:1049700043EAC20242EB507018BF704728BF20F0D4
:1049800001007047B2F5801FBCBF184670474FEA60
:10499000410C1CF5001F02D2084600F00FBC70B598
:1049A00000F010FB00000089FFF7F6BF4FF0004059
:1049B000A0F580007047491058BFC1F140415B101D
:1049C00058BFC3F140438B42EFF3008070470000B3
:1049D0002DE9C04130B4DFF8A4C23CEA111418BF7D
:1049E0003CEA131400F0ED801CEA111481EA03057F
:1049F00044EAD57418BF1CEA131500F0C880A4EB74
:104A0000050404F17F7404F500344FF0004545EAD5
:104A1000C12145EAC32341EA505143EA52534FEAC8
:104A2000C0204FEAC222994208BF904200F09D8008
:104A30004FEA13650FF24416765D4FEA134506FB05
:104A400005F7C7F1807706FB07F74FEAD737A7FBD3
:104A500003687642A7FB06CEC8F5803838BFA8F1B8
:104A6000010807FB08E6A6FB028C4FF0000EE6FBF0
:104A700003CEDCF1000CCEF1004E38BFAEF1010EDA
:104A8000A6FB0C584FF00007E6FB0E87A1FB08C6FB
:104A9000A0FB07CE16EB0E064FF0000545F1000512
:104AA000E1FB076515F1E04E7EBFA4F580345FEAB7
:104AB00046066D4116F1800745F100054FEA1727BC
:104AC00047EA05674FEA15254FEA0666A6F1DE4676
:104AD000B6F1805F20D9384605EBC47124F0010C93
:104AE00001EB0C11BCF1FE6F02D8F0BCBDE80081F7
:104AF00024425CBF01F5801E9EEAC47F02D4F0BC54
:104B0000BDE80081244200F13980A1F1C041F0BC30
:104B1000BDE8004100F0A4BA4FEAD02040EA41507D
:104B20004FEAD1214FEAD22242EA43524FEAD3233D
:104B3000A7FB028607FB036605FB02661EEA0E0F53
:104B400058BFA6EB0056B6EB00564FEA520E4EEA9F
:104B5000C37E18EB0E0E56EB530EBCD518EB0208B5
:104B60005E417F1C55F10005B5E74FF480154FF00D
:104B700000074FF000064FF00008ACE701F1C0411C
:104B800001F000414FF00000F0BCBDE800810CEAEC
:104B9000131511EA0C1F00D00CE013EA0C1F00F0F3
:104BA00026804FF0000081EA030101F00041F0BCD3
:104BB000BDE80081F0BCBDE8004181EA030100F0DE
:104BC0004FBAF0BCBDE8004170B500F0FBF900BF82
:104BD000097EFC3E00F007B84FF0000081EA0301B7
:104BE00001F00041704781EA030100F039BAF0BCDE
:104BF000BDE8004122494FF000007047FFFDFBF97E
:104C0000F7F5F4F2F0EEEDEBE9E8E6E4E3E1E0DEFF
:104C1000DDDBDAD8D7D5D4D3D1D0CFCDCCCBCAC871
:104C2000C7C6C5C4C2C1C0BFBEBDBCBBBAB9B8B798
:104C3000B6B5B4B3B2B1B0AFAEADACABAAA9A8A88B
:104C4000A7A6A5A4A3A3A2A1A09F9F9E9D9C9C9B59
:104C50009A99999897979695959493939291919004
:104C60008F8F8E8E8D8C8C8B8B8A89898888878795
:104C70008685858484838382828181800000FF070A
:104C80000000F87F51EA030C17D41CF5801F58BFB1
:104C9000BCF5801F00F10680994218BF704708BF1D
:104CA0009042704707D711F5801F58BF13F5801F3A
:104CB00019D499427047894270471CF5801F08D566
:104CC000BCF5801FF7D58B4218BF704708BF8242E2
:104CD00070474FF4001C1CEB410F38BF1CEB430F17
:104CE00001D28B42704770B500F06CF992244900F4
:104CF0004FF000514FF08053FFF75DBE4FEA410384
:104D00004FEA5353A3F58063D3F11E03C8BFD3F119
:104D1000210C0CDD4FF0004242EAC12242EA50521F
:104D200032FA03FC8CEAE17CACEBE1707047102BAB
:104D3000C4BF0020704703F5787CBCF1FF3F04D06E
:104D40006FF0004282EA2100704770B500F03AF936
:104D50004992248000207047F2E7B0FA80F310FAFD
:104D600003F10AD0C3F11D0303F580634FEA035238
:104D70004FEA415002EBD12170474FF000007047DD
:104D800051EA030C17D41CF5801F58BFBCF5801FD7
:104D900000F10680994218BF704708BF90427047E3
:104DA00007D711F5801F58BF13F5801F19D49942FA
:104DB0007047894270471CF5801F08D5BCF5801FDD
:104DC000F7D58B4218BF704708BF824270474FF437
:104DD000001C1CEB410F38BF1CEB430F01D28B4270
:104DE000704770B500F0EEF8922449004FF0805102
:104DF0004FF00053FFF7DFBD51EA030C17D41CF549
:104E0000801F58BFBCF5801F00F10680994218BF73
:104E1000704708BF9042704707D711F5801F58BFF1
:104E200013F5801F19D499427047894270471CF5C9
:104E3000801F08D5BCF5801FF7D58B4218BF70477F
:104E400008BF824270474FF4001C1CEB410F38BF73
:104E50001CEB430F01D28B42704770B500F0B2F8E3
:104E6000922449004FF000514FF08053FFF7A3BD4B
:104E700070B5DFF848C11CEA111E1EBF1CEA1315ED
:104E80009EEA0C0F95EA0C0F00F06F8081EA030494
:104E90004EEAD47EAE4421EA4C1123EA4C1341F48D
:104EA000801143F48013AEF17F7EA1FB024CA0FB86
:104EB0000365361955EB0C05A1FB034C4CF10003BF
:104EC000A0FB021C16EB0C06654153F100030942DE
:104ED00018BF46F0010613F4007F0BD14FEA0331EF
:104EE0004FEA053041EA155140EA165034036FF09D
:104EF00003020AE04FEAC3214FEAC52041EA5551B7
:104F000040EA5650F4026FF0020202EB2E4201EB2F
:104F1000025585EACE710AD05FEA440C18BF24F02E
:104F2000004450F1000041F1000120EAD47040F249
:104F3000FE7C624500D270BDA84214BF4FF0804491
:104F40004FF04044002E08BF0024BEF1806FA8BF80
:104F5000A1F1C041BDE8704080F2828001F1C04102
:104F600001F000414FF0000070470CEA13159EEA73
:104F70000C0F18BF95EA0C0F06D081EA030E4FF014
:104F800000000EF0004170BD00F01CF88900013EE9
:104F900000F007B800F009B84FEA430C5FEA5C5C28
:104FA00008D081EA030100F05BB84FEA410C5FEAE8
:104FB0005C5CF6D102494FF0000070470000FF072B
:104FC0000000F87F0EF1020E2EF0030E5EF8046B67
:104FD000364205D4012A43EB030515F5001F12D80C
:104FE000012841EB010C1CF5001F0CD80ED14FEA33
:104FF000D17C0CEB4C0C0CF1020C15F5001F08BF1A
:105000004CEBD37C04E04FF0080C01E04FEAD37C7A
:105010000CEB4C0526FA05F606F00706B6F1040C73
:1050200006D20EEB860CBDE870404CF0010C6047D8
:10503000DFE80CF0090B02024FF00041A1F500215E
:105040004FF0000070BD19461046012851EB0104D5
:1050500018BFD4F5001484BF002001F0004170BDDA
:105060000808A0F500114FEA3101704743004FEAEC
:10507000D30C4FEA3C0C43401FBF40070CF160517A
:1050800013F0FE4F70471CF0006F03D10CF000418D
:10509000002070470CF0004343EA507040EACC0017
:1050A00010B500F038F800BF000000924FEA000190
:1050B000FFF7D6BF4FF00041A1F500214FF00000EF
:1050C000704710B5FFF7DEFD0CBF0120002010BDBA
:1050D00010B5FFF7D7FD14BF0120002010BD10B59B
:1050E000FFF74EFE8CBF0120002010BD10B5FFF76A
:1050F00047FE2CBF0120002010BD10B5FFF77CFE3D
:1051000094BF0120002010BD10B5FFF775FE34BF1D
:105110000120002010BD0EF1020E2EF0030E5EF8ED
:10512000044B244204D44FEA4102B2F17F4F11D81C
:105130004FEA4003B3F17F4F0CD80ED14FEAD07C39
:105140000CEB4C0C0CF1020CB2F17F4F08BF4CEB96
:10515000D17C04E04FF0080C01E04FEAD17C0CEB6D
:105160004C0324FA03F404F00704B4F1040C06D24F
:105170000EEB840CBDE810404CF0010C6047DFE8FA
:105180000CF0070802024FF00040A0F5800010BDAF
:105190000846420018BFD2F1807288BF00F000407C
:1051A00010BDF1EE100A4FF6FF71C0F2C03120EAD7
:1051B000010040F04070E1EE100A7047FF2141EA23
:1051C000D050C00570470000000000000000010240
:1051D000030406070809000000000102030400069A
:1051E00010160006101600000852000800000020EB
:1051F00010000000000200081852000810000020F3
:10520000480A00001C020008010000001000000015
:085210000024F400000000007E
:04000005080001C529
:00000001FF
