:020000040800F2
:10000000580A002065020008832F0008672A0008AC
:10001000812F0008110600085F330008000000006F
:10002000000000000000000000000000892F000810
:100030001907000800000000852F00088B2F00081A
:100040007F0200087F0200087F0200087F0200088C
:100050007F020008872F00087F0200087F02000847
:100060007F0200087F0200087F0200087F0200086C
:100070007F0200087F0200087F0200087F0200085C
:100080007F0200087F0200087F0200087F0200084C
:10009000150600087F0200087F0200087F020008A2
:1000A0007F0200087F0200087F0200087F0200082C
:1000B000413000087F0200084D3000087F02000830
:1000C0007F0200087F0200087F0200087F0200080C
:1000D0007F0200087F0200087F0200087F020008FC
:1000E0007F0200087F0200087F02000871300008CC
:1000F0007F0200087F0200087F0200087F020008DC
:100100007F0200087F020008593000087F020008C3
:100110007F0200087F0200087F02000865300008A7
:10012000690600087F0200087F0200087F020008BD
:100130007F02000800000000000000007F020008AD
:100140007F0200087F0200087F0200087F0200088B
:100150007F0200087F0200087F0200087F0200087B
:100160007F0200087F0200087F0200087F0200086B
:100170007F0200087F0200087F02000800000000E4
:10018000000000007F0200080000000000000000E6
:100190007F02000800000000000000007F0200084D
:1001A0000000000000000000000000007F020008C6
:1001B0007F0200087F0200087F0200087F0200081B
:1001C0007F02000800F002F800F03CF80AA090E876
:1001D000000C82448344AAF10107DA4501D100F002
:1001E00031F8AFF2090EBAE80F0013F0010F18BF93
:1001F000FB1A43F0010318475C4300007C430000F6
:10020000103A24BF78C878C1FAD8520724BF30C842
:1002100030C144BF04680C60704700000023002414
:1002200000250026103A28BF78C1FBD8520728BF06
:1002300030C148BF0B6070471FB504F070F91FBD97
:1002400010B510BD00F0CFF81146FFF7F5FF03F031
:10025000C5FB00F0EDF803B4FFF7F2FF03BC00F0BC
:10026000F5F800000948804709480047FEE7FEE727
:10027000FEE7FEE7FEE7FEE7FEE7FEE7FEE7FEE756
:1002800004480549054A064B704700003130000814
:10029000C501000858040020580A00205806002014
:1002A0005806002053EA020C00F069802DE9F04B5B
:1002B0004FF00006002B1FBFB3FA83F503FA05F4D5
:1002C00024FA05F65E4012BF1643B2FA82F502FA2E
:1002D00005F4C5F120051EBF22FA05FC44EA0C0412
:1002E000203556EA044C4FEA144418BF641C4FF002
:1002F00000084FF00009904271EB030C39D300293C
:1003000019BFB1FA81F701FA07F6B0FA80F700FADF
:1003100007F6C7F120071EBF20FA07FC46EA0C06C5
:100320002037B6FBF4FCA7EB0507103F07F01F0BC7
:10033000CBF120060CFA0BFB2CFA06F644BFB346B1
:100340000026202FA4BF5E464FF0000B5BEA060C90
:1003500008BF4FF0010B19EB0B09ABFB027C48EB1C
:100360000608C01B06FB02CC0BFB03CC71EB0C0197
:10037000C1E70B46024641464846BDE8F08B13B53F
:100380004FF000004FF00001AFF30080BDE81C40CB
:1003900070474FF0000200B5134694469646203948
:1003A00022BFA0E80C50A0E80C50B1F12001BFF42E
:1003B000F7AF090728BFA0E80C5048BF0CC05DF894
:1003C00004EB890028BF40F8042B08BF704748BFE2
:1003D00020F8022B11F0804F18BF00F8012B704756
:1003E000704770477047754600F02CF8AE46050020
:1003F0006946534620F00700854618B020B5FFF740
:100400003FFFBDE820404FF000064FF000074FF0DF
:1004100000084FF0000B21F00701AC46ACE8C00922
:10042000ACE8C009ACE8C009ACE8C0098D4670472B
:1004300010B50446AFF300802046BDE81040FFF73A
:100440000ABF000000487047F4030020014918204B
:10045000ABBEFEE726000200704710B50146806B78
:10046000026C12F0500F05D0026CD20626D500F0B7
:1004700072FA10BD016C41F40071016401688A6870
:1004800012F0405F17D1027EAAB9CA6A12F4700F47
:1004900002D08A6852050ED44A6822F020024A60CF
:1004A000016C21F480710164016CC90403D4016CF6
:1004B00041F00101016400F003FA10BD806BC26CD1
:1004C000BDE810400846104710B5806B402101641C
:1004D000416C41F00401416400F03DFA10BD10B5DB
:1004E000806B00F037FA10BD464910B54A6822F417
:1004F00040324A604A6843681A434A6001684A6861
:1005000022F480724A6001684A68036942EA032261
:100510004A6001684A6822F040724A6001684A688D
:1005200083681A434A6001688A6822F400628A601C
:1005300001688A68C3681A438A60816A6FF07062D2
:10054000D14201688A6822F070628A6001688A6814
:100550000CD0836A1A438A6001688A6822F040528C
:100560008A6001688A68C36A1A4301E022F0405237
:100570008A6001688A6822F002028A6001688A68DB
:10058000037E42EA43028A6090F820100029016845
:100590004A680FD042F400624A6001684A6822F457
:1005A00060424A6001684A68174C436A04EB43336F
:1005B0001A4301E022F400624A600168CA6A22F428
:1005C0007002CA620168CA6A838B104C04EB035341
:1005D0001A43CA6201688A6822F400728A6001685C
:1005E0008A6890F8303042EA43228A6001688A685B
:1005F00022F480628A6001688A68406942EA802049
:10060000886010BD0023014000E0FFFF0000F0FF04
:10061000FEE70000014800F050BC00009C000020F4
:1006200000B50F498BB023200860002008228860A5
:10063000C1E90302087500900190029003900490B4
:10064000059001210690CDE907010990694605480A
:1006500000F022FB002801D000F060F80BB000BDD4
:10066000380300209C000020014800F071BE00000B
:100670009403002001681823CAB2103AB2FBF3F2C7
:10068000054B6FF30901032A9B5CC36500D9091D63
:1006900081650846704700003245000810B50146E4
:1006A00000208B698A6A4FF0C07453B1B3F5005FC4
:1006B00015D072B1012A0CD0022A0AD0032A09D11E
:1006C00004E01AB1012A06D0022A03D1C96AC9017D
:1006D00000D5012010BDC96AA142FAD010BD002A80
:1006E000F7D0012AF2D0022AF3D0032AF3D010BDAA
:1006F00030B50468256825F48025256004686360AA
:100700008368402B036803D099600068C26030BDE5
:100710009A600068C16030BD704700002DE9F0416B
:100720000D4E00244FF480654FF4FA7701222946DC
:10073000304601F072F8384603F020F900222946CD
:10074000304601F06AF8384603F018F9641C052CAD
:10075000ECDBBDE8F08100000000024078B5002429
:10076000009490F83C20012A19D0012280F83C2006
:100770000A6807230568092A13D9EE680A3A02EBCA
:10078000420293409E43EE600B788A680A3B03EB7B
:1007900043039A400368DD682A43DA6010E00220D0
:1007A00078BD2E6902EB420293409E432E610B7886
:1007B0008A6803EB43039A4003681D692A431A6160
:1007C0004A681F23072A13D205686E6B521E02EB7C
:1007D000820293409E436E630A8893B20A79521E46
:1007E00002EB820293400268556B2B43536327E070
:1007F00005680D2A12D22E6BD21F02EB82029340A3
:100800009E432E630B790A88DB1F92B203EB8303AE
:100810009A4003681D6B2A431A6311E0EE6A0D3A91
:1008200002EB820293409E43EE620B790A880D3BF5
:1008300092B203EB83039A400368DD6A2A43DA62CB
:100840001B4B0568194A9D420AD10D68122D07D12C
:10085000556825F400055560556845F480055560D8
:1008600005689D421DD1134D0B68AB4201D0112B81
:1008700017D1536823F480035360536843F4000393
:1008800053600968A9420CD10B490C4A0968B1FBB5
:10089000F2F101EB8101490000E0491E00910029BD
:1008A000FBD180F83C40002078BD000000230140CF
:1008B00000200140120000105000002040420F00B4
:1008C00010B500681B49884232D11B481A4C008879
:1008D0001A3C03F02FFC9FED191B53EC112B03F076
:1008E00079FC9FED181B53EC112B03F0CBFA03F0AE
:1008F0008BFA00EE100AF0EE080A84ED090A20EEE9
:10090000200AF6EE000A20EE200AF7EE000A84ED37
:100910000A0A30EE600A10EE100A03F08FFD9FED18
:100920000B1B53EC112B03F0ADFA03F06DFAE062F0
:1009300010BD0000002001401A00002066666666B7
:1009400066660A400000000000FEAF409A9999993F
:100950009999D93F7047704770B504004FF0000572
:1009600003D0206C002610B107E0012070BD2046A6
:1009700000F01CF8666484F83C60206CC00610D45B
:10098000206C20F4885040F0020020642046FFF7DD
:10099000ABFD6664206C20F0020040F00100206492
:1009A00000E0012584F83C60284670BD70B586B033
:1009B000064614216846FFF7ECFC1D493068884262
:1009C00034D11C480025016841F480710160006841
:1009D00000F48070059017481438016841F0010157
:1009E00001600068694600F0010005900220009057
:1009F0000320CDE90105104800F01CFE104C0F4803
:100A0000C4E900050015A560C4E903504000606119
:100A10008000A0614011C4E907052046656200F02E
:100A200067FD08B1FFF77AFEB463A66306B070BD38
:100A3000002001404438024000000240106402409F
:100A400094030020F8B5044600200E46009094F868
:100A50003C10012907D0012184F83C1021688B68E3
:100A6000DB0702D011E00220F8BD8B6843F00103E0
:100A70008B604049404B0968B1FBF3F101EB410148
:100A800000E0491E00910029FBD121688B68DB053D
:100A900003D58B6823F480738B6021688B68DB0738
:100AA0005DD0236C40F20165AB4343F48073236453
:100AB0004968490505D5216C21F4005141F4805164
:100AC0002164216CC90404D5616C21F006016164C4
:100AD00000E0606484F83C00A16B2948274DC8639E
:100AE000A16B28480864A16B2748C86421686FF08F
:100AF000220008602068416841F080614160206800
:100B0000816841F4807181602168134632464C311E
:100B1000A06B00F057FD68681C49C006206806D02D
:100B2000884224D1816811F0405F13D01FE08842D1
:100B3000F8D0174A904203D1D1F80423D206F1D05D
:100B4000144A904213D1D1F8041301F01F01102967
:100B5000E8D30CE0816841F08041816007E0206CBF
:100B600040F010002064606C40F0010060640020E0
:100B7000F8BD00005000002040420F00002301405B
:100B80005B040008DF040008C904000800200140DD
:100B9000002101400022014090F82020012A07D0C6
:100BA000022A05D0416A41F4802141620120704748
:100BB000006842690A43426100207047F0B590F82E
:100BC00020500468A468012D05D0022D03D0416A8D
:100BD00041F480215DE014F0406F01D1E50055D56E
:100BE000C4F30164022C03D9416A41F4000150E0CE
:100BF0000125A5401D608D684FF4C0739DB1CE687E
:100C000035434E6845EAC605066803EB0417F551FF
:100C10004FF4C275076805EB04150E697E51097D16
:100C2000012905D009E00E88CD6845EA4655EBE775
:100C300001684E5946F480764E511179D57956792E
:100C400041EA056195792D0445EA062529434FF4CB
:100C5000C676056806EB0416A9511178D57841EAE5
:100C60000561957852782D0445EA022211434FF42C
:100C7000C475026805EB04155151006803EB0411BB
:100C8000425842F0010242500020F0BD416A41F456
:100C9000001141620120F0BD10B590F82020012A1A
:100CA00007D0022A05D0416A41F480214162012027
:100CB00010BD3B48D0F8002242F00102C0F80022EB
:100CC000D0F8002222F47C52C0F80022D0F8002292
:100CD0004B6A42EA0322C0F800220A7D02F01F0399
:100CE00001229A40D0F81C329343C0F81C32CB69E1
:100CF000B3B9D0F80C329343C0F80C328C894B68EE
:100D000064F31F434C6900EBC404C4F840320C89FF
:100D10000B6864F31F434C6900EBC404C4F844320D
:100D2000CB69012B16D1D0F80C321343C0F80C322A
:100D30000C884B6864F31F434C6900EBC404C4F88F
:100D400040320C89CB6864F31F434C6900EBC40448
:100D5000C4F844328B69002BD0F804320ED0134310
:100D6000C0F804320B69002BD0F8143208D01343BA
:100D7000C0F81432096A012904D008E09343EFE770
:100D80009343F5E7D0F81C121143C0F81C12D0F8B9
:100D9000001221F00101C0F80012002010BD000077
:100DA00000640040704730B590F82040012C05D019
:100DB000022C03D0416A41F480215DE004680029DF
:100DC00055D02469A40754D04FF4D874056804EBB7
:100DD00001142D5915F00405956005682D594ED064
:100DE000ED08556005682C5904F00204D4604FF4F6
:100DF000DA74056804EB01142D5905F00F0515612F
:100E000005682D59C5F30725956105682C59240CF3
:100E100054614FF4DC72046802EB0112A4581C7098
:100E20000468A458240A5C700468A458240C9C70BC
:100E30000468A258120EDA704FF4DE72046802EBF6
:100E40000112A4581C710468A458240A5C71046837
:100E5000A458240C9C710468A258120EDA71006820
:100E600081B1016941F020010161002030BDE468D9
:100E7000A8E7416A41F400114162012030BD6D0DC7
:100E80001560AFE7C16841F02001C160EDE702469F
:100E9000002092F82010012901D002290CD11168FC
:100EA0008A68520100D501208A68120100D5401CD1
:100EB0008968C90000D5401C70472DE9F05F0546E0
:100EC000006800244669D0F804908768D0F80CB018
:100ED000D0F810A0D0F81880F10748D0F90714D046
:100EE00001218160B80703D5284600F02AFA0CE0FA
:100EF000780702D54FF4006407E0380702D54FF4B5
:100F0000805402E0284600F01BFAF80516D529683F
:100F10004FF480708860B80503D5284600F013FAB6
:100F20000CE0780502D544F4005407E0380502D5FA
:100F300044F4804402E0284600F004FAF80316D591
:100F400029684FF480308860B80303D5284600F044
:100F5000FCF90CE0780302D544F4004407E03803C0
:100F600002D544F4803402E0284600F0EDF9300761
:100F700007D55FEACB6004D52968102044F40074DB
:100F8000C86070074FF0080707D55FEA0B7004D5FB
:100F90002868C760284600F059F9B00706D52868C8
:100FA000C068800702D0284600F052F9700607D5C5
:100FB0005FEACA6004D52968102044F4806408619F
:100FC000B00607D55FEA0A7004D52868076128468D
:100FD00000F086F9F00606D528680069800702D07F
:100FE000284600F07EF9B00308D55FEAC96005D550
:100FF000296810204860284600F074F9F00307D5EE
:101000005FEA097004D528684760284600F09EF919
:10101000300446D55FEA497040D5F00504D55FEA53
:10102000C87001D044F00104B00504D55FEA8870AF
:1010300001D544F00204700504D55FEA487001D57B
:1010400044F00404300529D518F0700F26D008F0BC
:101050007000402815D006DC102809D020280AD0BE
:10106000302816D10AE050280ED0602811D10EE0A9
:1010700044F008040DE044F010040AE044F02004B9
:1010800007E044F0400404E044F0800401E044F44C
:1010900080742868816921F07001816129680420C9
:1010A0004860002C05D0686A204368622846FFF734
:1010B00079FEBDE8F09F70B5040003D094F82000DD
:1010C00010B104E0012070BD204600F081F82068D6
:1010D000016821F00201016000F0A4FB054605262D
:1010E00004E000F09FFB401B0A2811D820684068EC
:1010F0008007F6D42068016841F00101016000F02A
:1011000091FB05460BE000F08DFB401B0A2806D939
:10111000606A40F40030606284F82060D2E72068A2
:101120004068C007EFD0207E0128206801683DD0CC
:1011300021F080010160607E01282068016838D0BC
:1011400021F040010160A07E01282068016833D0B1
:1011500021F020010160E07E0128206801682ED086
:1011600041F010010160207F01282068016829D02A
:1011700021F008010160607F01282068016824D007
:1011800021F004010160D4E902010843D4E904120A
:10119000114308436168491E08432168C861002063
:1011A0006062012084F82000002070BD41F08001C1
:1011B000C0E741F04001C5E741F02001CAE721F056
:1011C0001001CFE741F00801D4E741F00401D9E76D
:1011D00010B586B0044614216846FFF7DAF81849BE
:1011E0002068884229D117480021026842F0007225
:1011F0000260006800F00070059012481038026824
:1012000042F001020260006800F0010005904FF416
:10121000C05000900220CDE9010103200390092075
:1012200004906946084800F005FA0022114614208F
:1012300000F06EFB142000F05DFB06B010BD000056
:101240000064004040380240000002407047000047
:1012500070B5204A0168914220D11F4B1F4A0021DE
:10126000FFF7A1FD08B1FFF759FA1C481A4C0025F9
:101270000168343CA0F14C06642910D00A291BD027
:1012800073290BD10269022A08D113492A3002F0CE
:1012900083FAE07D032801D10120207070BD02692E
:1012A000072AFBD120790C49401C20710B481C30C7
:1012B00002F028FAB56170BD0269022AFBD12079DB
:1012C0000549401C2071A1F1160002F0BDF93563FB
:1012D00070BD000000640040340000205003002076
:1012E000704770477047000070B5044690F82000C2
:1012F000012804D0606A40F40020606218E00220F7
:1013000084F820002068016821F00101016000F0EC
:1013100089FA05460EE000BF00F084FA401B0A2857
:1013200008D9606A40F400306062052084F820002B
:10133000012070BD20684068C007EDD1606270BDBB
:10134000704770477047704770477047704700009C
:101350002DE9F84304464FF00009CDF800906348AA
:101360004FF41651A56D0068B0FBF1F72E6894F8A4
:101370005C10082000FA01F131420FD021680A68A0
:1013800052070BD50A6822F004020A6094F85C1038
:101390008840A860606D40F00100606594F85C10C2
:1013A0004FF0010808FA01F0304208D0216849697D
:1013B000090604D5A860606D40F00200606594F8ED
:1013C0005C1004208840304208D0216809688907F1
:1013D00004D5A860606D40F00400606594F85C106E
:1013E00010208840304218D021680968090714D5B8
:1013F000A86020680168490304D50068000308D587
:10140000A16C07E00168C90503D4016821F0080157
:101410000160216C09B12046884794F85C102020B7
:101420008840304231D021680968C9062DD5A860AE
:1014300094F8350005282068016806D0490347D58F
:10144000006800031DD4616C1CE021F016010160EE
:101450002068416921F080014161206C08B9A06CCD
:1014600020B12068016821F00801016094F85C1047
:101470003F208840A86084F8349084F83580216D3E
:101480001FE0E16B09B120468847606D00282BD032
:10149000606DC00714D0052084F83500206801680D
:1014A00021F0010101600098401C0090B84203D86F
:1014B00020680068C007F6D184F8349084F835803D
:1014C000E16C002910D001B02046BDE8F043084788
:1014D0000168C905D5D4016821F01001016084F8C4
:1014E000349084F83580CCE7BDE8F88350000020C4
:1014F0002DE9F041044600F095F906465CB100255F
:1015000084F83450022084F835002068016821F006
:10151000010101600DE00120BDE8F08100F082F9D9
:10152000801B052805D920206065032084F835003C
:10153000F2E720680068C007F0D1226811682048EF
:101540000140D4E901031843D4E903363343184377
:1015500063691843A3691843E3691843236A18436E
:101560000843616A042903D1D4E90B1319430843E2
:10157000106020684069666A20F0070130460E431B
:10158000012704280CD1A06A0643E06A40B1204636
:10159000FFF784F820B14020606584F83570BAE721
:1015A000206846612046FFF765F894F85C203F21EB
:1015B00091408160656584F835700020ACE70000DB
:1015C0003F8010F02DE9F0410446866D90F834001C
:1015D000002501280DD0012084F8340094F83570DE
:1015E0000020012F07D084F8340002252846BDE8EA
:1015F000F0810220FBE7022784F835706065204601
:10160000FFF776F894F85C103F208840B0602068BF
:10161000016841F016010160206C20B1206801686A
:1016200041F0080101602068016841F0010101609A
:10163000DCE700002DE9F84FDFF8ACA1002201241F
:101640000AF1040B03254FF00F090BF1040E00BF44
:101650000B6804FA02F63340B34272D10F7907F0F7
:101660000307012F01D0022F16D187684FEA4208E5
:1016700005FA08FC27EA0C07D1F80CC00CFA08FCA4
:101680004CEA070CC0F808C04768B7430E79C6F3A8
:10169000001696403E4346600E79F643B6070AD0E0
:1016A000C6684FEA420C05FA0CF7BE438F6807FA8A
:1016B0000CF73743C7600E7906F00306022E10D1EF
:1016C000D60800EB8608D8F8206057074FEAD76C99
:1016D00009FA0CF7BE430F6907FA0CF73743C8F84D
:1016E000207006684FEA420C05FA0CF7BE430F79EA
:1016F00007F0030707FA0CF7374307604E68F60058
:101700006BD53A4E376847F480473760366822F029
:10171000030706F480460096354E07EB060CDCF80E
:10172000086897074FEA177809FA08F7BE43314F60
:10173000B84201D100271FE02F4FB84202D1012744
:101740001AE04AE02D4FB84201D1022714E02C4F95
:10175000B84201D103270FE02A4FB84201D1042734
:101760000AE0294FB84201D1052705E0274FB842CA
:1017700001D1062700E0072707FA08F73743CCF81E
:101780000878DAF800605746D1F804C09E435FEA53
:10179000CC3C00D51E433E60DBF800605F46D1F8CC
:1017A00004C09E435FEA8C3C00D51E433E60DEF8D9
:1017B00000607746D1F804C09E435FEACC2C00D588
:1017C0001E433E60084F0C373E68D1F804C09E436C
:1017D0005FEA8C2C00D51E433E60521C102AFFF499
:1017E00037AFBDE8F88F0000003C014044380240AC
:1017F00000300140000002400004024000080240A6
:10180000000C024000100240001402400018024088
:101810000069084000D0012070470AB1816170471B
:101820000904FBE70148806870470000440000207D
:1018300002488168027811448160704744000020AA
:101840000B4810B5016841F400710160016841F472
:1018500080610160016841F480710160032000F043
:1018600077F80F2000F006F800F024F8002010BDF3
:10187000003C024070B50D4D04464FF47A71287853
:10188000B1FBF0F00A490968B1FBF0F000F06AFB27
:1018900048B9102C07D200222146501E00F038F81B
:1018A00000206C6070BD012070BD0000440000206D
:1018B000500000200E4808B5016841F480410160E5
:1018C000006800F4804000900948001F016841F062
:1018D000805101600068002200F0805000901146A5
:1018E000052000F015F8BDE80840052000F002B81A
:1018F00044380240002809DB00F01F02012191401A
:101900004009800000F1E020C0F80011704700009D
:10191000F0B40E4B1B680C46C3F30223C3F107055A
:10192000042D00D90425191D072901D2002300E048
:10193000DB1E012606FA05F1491E214099409E4012
:10194000761E16403143F0BC01F00ABD0CED00E0FC
:10195000064900F0070208684FF6FF03184040EA06
:101960000220034A10430860704700000CED00E0BD
:101970000000FA052DE9F8431748016841F080514D
:1019800001600068154F00F08050012600903E6411
:10199000FFF748FF05464FF47A78114C05E000BF89
:1019A000FFF740FF401B40450DD86068C003F7D5E6
:1019B0007E64FFF737FF0546464607E0FFF732FF34
:1019C000401BB04202D90320BDE8F8836068800361
:1019D000F4D50020F8E700004038024000000E4235
:1019E000007000402DE9F0470E46050065D0DFF895
:1019F0001481D8F80000F7B200F00F00B04207D20F
:101A000088F80070D8F8000000F00F00B04254D100
:101A100028683D4C810712D5400703D5206840F463
:101A2000E05020602878000703D5206840F460402B
:101A300020602068A96820F0F00008432060287822
:101A4000C0072DD0304968680839012812D0022813
:101A500013D0032811D00968890700292DDA2168DD
:101A600021F0030101432160FFF7DCFE814641F2D2
:101A7000883A0EE009688903EFE709688901ECE715
:101A8000FFF7D0FEA0EB0901514502D90320BDE8C4
:101A9000F0872068696800F00C00B0EB810FEFD18F
:101AA000D8F80010404601F00F01B14207D9077085
:101AB000006800F00F00B04201D00120E7E728786D
:101AC000400705D52068E96820F4E050084320600D
:101AD0002878000706D52068296920F4604040EA8C
:101AE000C100206000F028F82168084AC1F3031102
:101AF000515CC8400649086006480068FFF7BAFE16
:101B00000020C4E7003C0240083802403A45000883
:101B1000500000204800002004480549006809687A
:101B2000044AC1F38221515CC84070475000002034
:101B3000083802404A450008224810B5006810F0F5
:101B40000C02214815D04110042A11D01D4C241F2D
:101B5000082A0FD00C2A0CD12268236802F03F0219
:101B60005B0221D52068C0F38810A0FB010120E0B2
:101B7000084610BD2268236802F03F025B0205D5CB
:101B80002068C0F38810A0FB010104E02168C1F3C4
:101B90008811A1FB00010023FEF784FB2168C1F33B
:101BA0000141491C49000AE02168C1F38811A1FBE9
:101BB00000010023FEF776FB2168C1F30271B0FB40
:101BC000F1F010BD083802400024F4002DE9F84F70
:101BD00004007DD0DFF878B32078ABF10407C007AC
:101BE000A7F1040550D0DBF800105846C1F381017D
:101BF00001290FD00168C1F38101022902D139689E
:101C0000490207D40068C0F38100032809D138686D
:101C1000400206D52868800336D560680028D8D0F1
:101C200032E06068B0F5803F10D0B0F5A02F286892
:101C300010D020F480302860286820F480202860AC
:101C40006068A0B1FFF7EEFD06460CE0286840F49E
:101C50008030F4E740F480202860F7E7FFF7E2FDEA
:101C6000801B642876D828688003F7D50CE0FFF73E
:101C7000D9FD064605E000BFFFF7D4FD801B6428B0
:101C8000F0D828688003F7D42078DFF8C89280075E
:101C90004FF0000A44D5DBF80010584611F00C0F45
:101CA0000FD00168C1F38101022902D139684902CC
:101CB00007D50068C0F3810003280AD138684002C4
:101CC00007D42868800715D5E068012800D111E005
:101CD0003AE1E068B0B10120C9F80000FFF7A2FDC9
:101CE000064604E0FFF79EFD801B0228BAD828684C
:101CF0008007F7D52868216920F0F80040EAC10084
:101D000028600DE0C9F800A0FFF78CFD064604E04E
:101D1000FFF788FD801B02281CD828688007F7D4AD
:101D20002078000727D5DFF828828B48616908F101
:101D30006C0881B101210160FFF774FD064604E0E3
:101D4000FFF770FD801B022804D8D8F80000800738
:101D5000F6D510E089E0C0F800A0FFF763FD064665
:101D600005E000BFFFF75EFD801B02287DD8D8F894
:101D700000008007F6D42078400769D574484FF0FA
:101D8000000838300068C0000BD471483830016852
:101D900041F08051016000684FF0010800F0805070
:101DA00000906E4E3068C00511D4306840F48070E9
:101DB0003060FFF737FD009006E000BFFFF732FD0F
:101DC0000099401A022850D83068C005F6D5604EF8
:101DD000A068683601280FD00528306810D020F0A0
:101DE00001003060306820F004003060A068B8B1B5
:101DF000FFF718FD00900FE0306840F00100F4E7B5
:101E000040F004003060F7E7FFF70CFD0099411A3D
:101E100041F28830814264D830688007F4D50EE002
:101E2000FFF700FD009007E0FFF7FCFC0099411A66
:101E300041F28830814254D830688007F4D4B8F138
:101E4000000F05D042483830016821F08051016010
:101E5000A069A8B3DBF80010C1F38101022947D0C3
:101E60000228C9F860A005D000E03AE0FFF7DAFCEC
:101E7000044639E0FFF7D6FC064604E0FFF7D2FC43
:101E8000801B02282DD828688001F7D4F4E90701C7
:101E90000843E168324A490802EB0141A26841EA7D
:101EA00082110843217C40EA0160217D40EA0170F3
:101EB00038600120C9F86000FFF7B4FC044606E072
:101EC00044E000BFFFF7AEFC001B022809D82868D9
:101ED0008001F7D53AE000BFFFF7A4FC001B022801
:101EE00002D90320BDE8F88F28688001F4D42DE0E2
:101EF0000128F7D03868E26900F48001914223D1CB
:101F0000226A00F03F0191421ED147F6C071626A19
:101F10000140B1EB821F17D1A26A4FF0FF3300F4EA
:101F2000403103EB5202B1EB024F0DD194F82C205B
:101F300000F07061B1EB026F06D194F8301000F040
:101F4000E040B0EB017F01D00120CBE70020C9E7E2
:101F50000838024000004742800E474200700040AF
:101F60000000FFFF10B5401EB0F1807F01D30120BB
:101F700010BD4FF0E02460610F21601701F0F0F90F
:101F80000020A06107202061002010BD704770472D
:101F900010B590F83C20012A22D0012280F83C2084
:101FA000CA688C6822F4407222434C6822F4806232
:101FB00022430C6822F4006222430C6922F480520E
:101FC00022434C6922F400522243C969002322F4BF
:101FD00080420A4301684A6480F83C30002010BD0A
:101FE000022010BD70B590F83C20012A32D00124A7
:101FF00080F83C40022280F83D2003685A689D68C2
:1020000022F070060A6832435A60134B02689A4203
:1020100014D0B2F1804F11D0104B9A420ED0104B19
:102020009A420BD00F4B9A4208D00F4B9A4205D0E0
:102030000E4B9A4202D00E4B9A4204D1496825F0C9
:1020400080031943916080F83D40002180F83C10E6
:10205000084670BD022070BD000001400004004031
:1020600000080040000C0040000401400040014016
:102070000018004010B5040003D094F83D0010B1E2
:1020800007E0012010BD002084F83C00204600F04D
:102090001FF8022084F83D00211D206800F0F6FFA3
:1020A000012084F8460084F83E0084F83F0084F85C
:1020B000400084F8410084F8420084F8430084F82A
:1020C000440084F8450084F83D00002010BD000065
:1020D00008B501684048414A814207D1106840F084
:1020E00001001060106800F001000EE03B48001F86
:1020F000B1F1804F0BD03A4B994217D1016841F0B2
:1021000002010160006800F00200009008BD016853
:1021100041F0010101600068002200F00100009020
:1021200011461C20FFF7F4FB1C2051E02D4B994277
:102130000ED1016841F0040101600068002200F046
:102140000400009011461E20FFF7E2FB1E203FE036
:10215000254B99420ED1016841F0080101600068E9
:10216000002200F00800009011463220FFF7D0FB5B
:1021700032202DE01D4B99420ED1016841F0200123
:1021800001600068002200F0200000901146372016
:10219000FFF7BEFB37201BE0154B994207D11068B3
:1021A00040F002001060106800F0020009E0114ADF
:1021B0009142ABD1016841F040010160006800F03C
:1021C00040000022009011462B20FFF7A1FB2B209E
:1021D000BDE80840FFF78EBB0000014044380240D4
:1021E0000004004000080040000C004000140040C3
:1021F000000401400018004090F83D10012901D072
:1022000001207047022180F83D1000681149884282
:1022100014D0B0F1804F11D00F4988420ED00F4931
:1022200088420BD00E49884208D00E49884205D01A
:102230000D49884202D00D49884204D1816801F0DD
:102240000701062903D0016841F001010160002067
:1022500070470000000001400004004000080040FA
:10226000000C004000040140004001400018004004
:1022700090F83D10012901D001207047022180F81B
:102280003D100168CA6842F00102CA600068114945
:10229000884214D0B0F1804F11D00F4988420ED03F
:1022A0000E4988420BD00E49884208D00D49884219
:1022B00005D00D49884202D00C49884204D181687A
:1022C00001F00701062903D0016841F00101016016
:1022D000002070470000014000040040000800405A
:1022E000000C004000040140004001400018004084
:1022F0000168CA6822F00102CA6001680A6A41F2F4
:1023000011131A4207D10A6A9B101A4203D10A68B4
:1023100022F001020A60012180F83D100020704780
:1023200070B5044690F83C00012817D0012584F8C8
:102330003C50022084F83D002068826822F0770239
:1023400022F47F4282600868502830D00DDC2028BB
:102350004DD005DC98B310283BD148E0022070BD79
:10236000302844D0402834D139E0602828D0702863
:1023700006D0B0F5805F2CD0B0F5005F29D10AE01F
:10238000CB68D1E90121206800F0F1FE2068816866
:1023900041F0770109E0CB68D1E90121206800F024
:1023A000E6FE2068816841F48041816011E0CA68DE
:1023B0004968206800F0B0FF5021206807E016E06F
:1023C000CA684968206800F0B8FF6021206800F002
:1023D000D8FE84F83D50002084F83C0070BDCA68E7
:1023E0004968206800F098FF40212068EFE72268E4
:1023F00001461046EBE7704770B504460068016976
:102400004FF00005C943890715D4C168C94389073E
:1024100011D4E91E016101202077206880698007BE
:10242000204602D0FFF7E7FF04E000F0D7F820468F
:1024300000F066F9257720680169C943490717D478
:10244000C168C943490713D46FF004010161022038
:1024500020772068806910F4407F204602D0FFF783
:10246000CAFF04E000F0BAF8204600F049F92577E9
:1024700020680169C943090716D4C168C94309071F
:1024800012D46FF008010161042020772068C06930
:102490008007204602D0FFF7AEFF04E000F09EF870
:1024A000204600F02DF9257720680169C943C90647
:1024B00017D4C168C943C90613D46FF01001016174
:1024C000082020772068C06910F4407F204602D0A1
:1024D000FFF791FF04E000F081F8204600F010F9CA
:1024E000257720680169C943C90708D1C168C94374
:1024F000C90704D1891E0161204600F0A5F92068B2
:102500000169C943090609D4C168C943090605D44C
:102510006FF0800101612046FFF738FD20680169F6
:10252000C943490609D4C168C943490605D46FF0B7
:1025300040010161204600F095FA20680169C94315
:1025400089060BD4C168C943890607D46FF02001FE
:1025500001612046BDE87040FFF719BD70BD000065
:1025600030B587B0044614216846FDF712FF246891
:10257000164D0021164A02231648AC420FD11468AA
:1025800044F001041460126802F001020592821501
:102590000092CDE9013103910121049110E00E4D2B
:1025A000AC4210D1146844F001041460126802F0C7
:1025B0000102059240220092CDE90131CDE90313D9
:1025C0006946FFF737F807B030BD00000000014052
:1025D000303802400000024000040040704770B5EF
:1025E000044690F83C000D4601280AD0012084F8EA
:1025F0003C0042B1042A18D0082A2AD00C2A4DD116
:1026000039E0022070BD206800F0C4FD20688169B7
:1026100041F0080181612068816921F00401816134
:10262000206881692A69114311E0206800F0E2FD09
:102630002068816941F4006181612068816921F429
:1026400080618161206881692A6941EA0221816192
:1026500024E0206800F004FE2068C16941F0080110
:10266000C1612068C16921F00401C1612068C169AC
:102670002A69114311E0206800F026FE2068C16934
:1026800041F40061C1612068C16921F48061C161C8
:102690002068C1692A6941EA0221C161002084F8E9
:1026A0003C0070BD10B5040003D094F83D0010B19B
:1026B00007E0012010BD002084F83C00204600F017
:1026C0001EF8022084F83D00211D206800F0DEFC89
:1026D000012084F8460084F83E0084F83F0084F826
:1026E000400084F8410084F8420084F8430084F8F4
:1026F000440084F8450084F83D00002010BD704778
:102700007047000010B50446022249B104290ED0DA
:10271000082913D094F84100012816D0012010BDDB
:1027200094F83E000128F9D184F83E200FE094F897
:102730003F000128F2D184F83F2008E094F84000DF
:102740000128EBD184F8402001E084F841200122E7
:10275000206800F0FFFC16492068164A884201D024
:10276000904203D1436C43F40043436420688842A1
:1027700013D0B0F1804F10D00F4988420DD00F49CF
:1027800088420AD00E49884207D0904205D00D49B0
:10279000884202D00C49884204D1816801F00701C7
:1027A000062903D0016841F001010160002010BD3D
:1027B0000000014000040140000400400008004007
:1027C000000C0040004001400018004030B50446B5
:1027D0000D460068002200F0BDFC194B41F21111BA
:1027E00020688A10984202D0164B984209D1036A99
:1027F0000B4206D1036A134203D1436C23F4004316
:1028000043642068036A0B4206D1016A114203D176
:10281000016821F00101016001203DB1042D08D0C3
:10282000082D09D084F84100002030BD84F83E0016
:10283000FAE784F83F00F7E784F84000F4E7000087
:1028400000000140000401402DE9F041006800252E
:1028500001267A4CB0F1804F07D0794988421DD1CA
:10286000206A401C2062BDE8F08100F0C7FF00F044
:10287000C5FF0028607808D00028F4D16670BDE854
:10288000F04100216F48FFF73DBF0028EBD0657095
:10289000BDE8F04100216B48FFF798BF6A498842C4
:1028A00061D1DFF8A88120214046FEF7B1FF6071B9
:1028B0004FF480714046FEF7ABFF654FA071402199
:1028C0003846FEF7A5FFE07110214046FEF7A0FF55
:1028D000207240214046FEF79BFF60723915384652
:1028E000FEF796FFA07201213846FEF791FFE072D5
:1028F00004214046FEF78CFF20734FF40051404600
:10290000FEF786FFE07410213846FEF781FF207540
:102910004C48E27D90304FF44871012A0AD0022AD7
:1029200010D0227842B100F22622257092790AB1A5
:1029300040F2EC41006841634649E06A884204DAAB
:10294000267690E740F2C941F4E7607948B1A07972
:10295000012806D0207B20B1607B10B102202076B8
:1029600081E70320FBE7354A3B49927D884251D1FC
:10297000607900B10D2039490870A07918B10020A4
:1029800048703AB901E00D20FAE7207B20B101F050
:102990000FF808B10D2000E000208870607D00B1C4
:1029A0000D20C870E07D4872207E8872E078087241
:1029B0002A48803802790A71027C4A71027F2AB162
:1029C000827F1AB1427F0AB1012200E000228A719F
:1029D00090F82C00C87194ED0B0A0822BCEEC00AD6
:1029E00010EE100A888115481C493C3000F037FE73
:1029F00014482838FEF74BFA0028F9D00F4BBDE8F1
:102A0000F0413033154903F10C024C39A1F5277020
:102A1000FEF7D4B81249884293D112B1A08B401C62
:102A2000A083A08B40F6151188428AD3A575BDE816
:102A3000F0410A48C838FFF75BBC000000000020E6
:102A400000080040C4000020000C004000080240C4
:102A500000040240CBA1053F001400408403002085
:102A6000001800407047FEE71FB50021164800918E
:102A700001910291134A0391026001244FF48032C4
:102A80000461C0E90121017680F820101203C262BE
:102A90004FF06062C4618262C16080F8304044617E
:102AA000FDF75AFF08B1FDF739FE04200094CDE987
:102AB000014069460448FDF751FE002801D0FDF7AA
:102AC0002DFE1FBD00200140540000200F4810B50E
:102AD0000D4901600921416000214FF400328160FD
:102AE000C0E9031241610176012242768176C27605
:102AF00001774177FEF7DFFA002803D0BDE81040E8
:102B0000FDF70CBE10BD0000006400409C000020DA
:102B10002DE9F04186B014216846FDF73AFC2C48B7
:102B20000024016841F004010160016801F0040122
:102B30000591016841F080010160016801F08001A8
:102B40000591016841F001010160016801F0010196
:102B50000591016841F00201016000681D4F00F01D
:102B6000020041F20B650590002229463846FEF727
:102B700054FEDFF864804FF49066002231464046F0
:102B8000FEF74BFE42F6F410CDE9000469463846E4
:102B90000294FEF74FFD00950125CDE901546946E9
:102BA00038460394FEF746FD0096CDE90154694688
:102BB00040460394FEF73EFD44F25540CDE9000443
:102BC000694606480294FEF735FD06B0BDE8F0817F
:102BD0003038024000080240000002400004024079
:102BE0001FB5002110480091019102910D4A0391F7
:102BF000026040F28332C0E901216322C0E903216F
:102C00008161FFF737FA08B1FDF788FD4FF4805076
:102C1000009069460448FFF783FB002801D0FDF7C8
:102C20007DFD1FBD00180040BC02002010B596B00D
:102C300000240F9410941194129413941C2108A84A
:102C40001494FDF7A6FB20216846FDF7A2FB294856
:102C50002749016044F24F61C0E90114C721C0E96E
:102C6000031444618461FFF705FA08B1FDF756FDCE
:102C70004FF480500F900FA91E48FFF751FB08B189
:102C8000FDF74CFD1B48FFF70DFD08B1FDF746FDB4
:102C9000139413A917481494FFF7A4F908B1FDF78A
:102CA0003DFD602008906320CDE909040B940C944D
:102CB0000D94002208A90F480E94FFF790FC08B16C
:102CC000FDF72CFD00944FF40050CDE90440029430
:102CD00001940394694607480794FFF759F908B12E
:102CE000FDF71CFD0348FFF73BFC16B010BD0000CC
:102CF00000000140C400002010B586B00024174831
:102D0000009401940294039404944FF0804105943C
:102D1000016040F28331C0E9011440F2CF71C0E993
:102D200003148461FFF7A6F908B1FDF7F7FC4FF42F
:102D30008050009069460948FFF7F2FA08B1FDF7A4
:102D4000EDFC049404A905480594FFF74BF900280D
:102D500001D0FDF7E3FC06B010BD00000C0100201F
:102D600010B58EB000240794089409940A940B942B
:102D70001C2168460C94FDF70CFB1F481D4901609F
:102D80006321C0E9011444F24F61C0E90314846176
:102D9000FFF770F908B1FDF7C1FC4FF480500790C0
:102DA00007A91548FFF7BCFA08B1FDF7B7FC1248B0
:102DB000FFF778FC08B1FDF7B1FC2020CDE90B044A
:102DC0000BA90D48FFF70EF908B1FDF7A7FC60202D
:102DD000CDE9000402940022694607480494FFF7F5
:102DE000FEFB08B1FDF79AFC0348FFF7B9FB0EB0F4
:102DF00010BD0000000400405401002010B586B052
:102E000000241748009401940294039404941349F5
:102E10000594016040F28331C0E901146321C0E9E7
:102E200003148461FFF726F908B1FDF777FC4FF42E
:102E30008050009069460A48FFF772FA08B1FDF722
:102E40006DFC049404A906480594FFF7CBF800280C
:102E500001D0FDF763FC06B010BD00000008004083
:102E60009C01002010B586B00024174800940194FE
:102E700002940394049413490594016040F2833151
:102E8000C0E901146321C0E903148461FFF7F2F87B
:102E900008B1FDF743FC4FF48050009069460A48A2
:102EA000FFF73EFA08B1FDF739FC049404A906487F
:102EB0000594FFF797F8002801D0FDF72FFC06B026
:102EC00010BD0000000C0040E40100201CB50024EF
:102ED0000F4800940D490194016040F28331C0E92C
:102EE000011441F287318461C160FFF7C3F808B172
:102EF000FDF714FC2020CDE9000469460448FFF7E3
:102F000071F8002801D0FDF709FC1CBD0014004039
:102F10002C02002010B586B00024184800940194BB
:102F200002940394049414490594016044F24F619F
:102F3000C0E90114C721C0E9031444618461FFF7AB
:102F400099F808B1FDF7EAFB4FF48050009069460C
:102F50000A48FFF7E5F908B1FDF7E0FB2020CDE9CD
:102F6000040404A90548FFF73DF8002801D0FDF747
:102F7000D5FB06B010BD0000000401407402002023
:102F8000FEE7FEE7704770477047FEF751BC000050
:102F900030B593B034216846FDF7FBF914210DA834
:102FA000FDF7F7F920480025016841F080510160E4
:102FB000006800F0805012901C48016841F44041C4
:102FC00001600068022400F440401290012000904B
:102FD000000401908001CDE9064004200890B4204F
:102FE000CDE909040B9468460C94FEF7EFFD08B197
:102FF000FDF794FBFEF7BEFC08B1FDF78FFB0DA9B2
:103000000F2081E831004FF4A05010904FF4805011
:10301000119005210DA8FEF7E5FC002801D0FDF771
:103020007DFB13B030BD000040380240007000400E
:103030000248016841F470010160704788ED00E0CA
:103040000148FFF7D9B900000C0100200148FFF743
:10305000D3B900009C0100200148FFF7CDB9000062
:10306000E40100200148FFF7C7B900002C0200204E
:1030700010B50448FFF7C0F9BDE810400248FFF75B
:10308000BBB9000074020020BC020020F0B5026849
:10309000254C264D264E274F274B4FF0804CA04203
:1030A00009D0604507D0A84205D0B04203D0B8424D
:1030B00001D0984204D122F0700E4A6842EA0E0212
:1030C000A0421BD0604519D0A84217D0B04215D0FD
:1030D000B84213D0984211D0184DA8420ED0184DC6
:1030E000A8420BD0174DA84208D0174DA84205D0D2
:1030F000164DA84202D0164DA84203D122F44075C5
:10310000CA682A434D6922F080022A4302608A6815
:10311000C2620A688262A04201D0984201D1096964
:10312000016301214161F0BD000001400004004045
:1031300000080040000C0040000401400040014035
:10314000004401400048014000180040001C0040BD
:103150000020004010B501F01F030121046A9940CE
:103160008C430462016A9A401143016210BD10B59C
:10317000846842EA032224F47F440A4322438260A3
:1031800010BD826822F070020A4342F0070181609C
:1031900070470000F0B5026A22F001020262036A81
:1031A00042688469124E24F073050C682C4323F0A6
:1031B00002058B682B430D4DA84201D0B04205D1CA
:1031C00023F00807CB683B4323F00403A84201D057
:1031D000B04205D14D6922F4407215438A692A43F1
:1031E00042608461496841630362F0BD00000140B0
:1031F00000040140F0B5026A22F010020262026A85
:10320000436884690D6824F4E64444EA05248D6823
:1032100022F0200242EA05120F4D104EA84201D0C2
:10322000B04206D1CF6822F0800242EA071222F0B3
:103230004002A84201D0B04207D14D6923F4406357
:1032400043EA85038D6943EA8503436084614968E5
:1032500081630262F0BD00000000014000040140F3
:10326000F0B5026A22F480720262026A4368C4699D
:1032700022F4007224F073050C68124E2C438D6802
:1032800042EA05220E4DA84201D0B04206D1CF68D5
:1032900022F4006242EA072222F48062A84201D0AE
:1032A000B04207D14D6923F4405343EA05138D69B9
:1032B00043EA05134360C4614968C1630262F0BD1B
:1032C000000001400004014030B5026A22F480523F
:1032D0000262046A4268C3690D6823F4E64343EA64
:1032E00005238D6824F4005444EA0534084DA842AF
:1032F00002D0084DA84204D14D6922F4804242EA2E
:1033000085124260C36149680164046230BD0000F7
:10331000000001400004014010B5036A046A24F073
:1033200001040462846924F0F00444EA021423F0E6
:103330000A020A438461026210BD10B5036A23F0D9
:10334000100303628369046A23F4704343EA023280
:1033500024F0A00343EA01118261016210BDFEE77F
:103360000907090E002804DB00F1E02080F80014B2
:10337000704700F00F0000F1E02080F8141D704746
:103380002DE9F05FA84C00272DED028BE7706079E6
:1033900000287AD000F00CFB002876D0207B012892
:1033A000F5D00125DFF88492A5742A4669024846C3
:1033B000FEF733FAE57000219D48FFF707FA4FF456
:1033C000C878404600F0DAFA207B01285DD04FF43F
:1033D0007A76304600F0D2FA4FF0020A84F803A061
:1033E00000219348FFF78EF9404600F0C7FA207B92
:1033F00000284AD0304600F0C1FA0320DFF83482BA
:10340000E0706079002840D000F0D2FA00283CD06B
:10341000322000F0B3FAE06A4045F2DBB0463046B5
:1034200000F0ACFA0420E0704FF4805B6574012278
:1034300059464E464846FEF7F0F9322000F09EFA13
:103440006774002259463046FEF7E7F9DFF8E8B125
:10345000012291025846FEF7E0F96079B0B1A07AF6
:10346000012813D000F0A4FA80B1322000F086FACF
:10347000A0790128F1D000224FF480615846FEF770
:10348000CCF96E4E9FED6E8B18E0C8E0677448462D
:10349000BDEC028B0022BDE8F05F4FF48051FEF7D7
:1034A000BCB9A07901287DD0A07A0128FBD0607931
:1034B0000028F8D000F07CFA0028F4D0B08800F0A2
:1034C00039FE53EC182B00F083FFEAD9404600F098
:1034D00055FA0520E070A573012280215846FEF7B9
:1034E0009CF9322000F04AFA002280215846FEF76B
:1034F00094F9A773404600F041FA0620E0704FF4BB
:10350000806B6573012259464846FEF786F940F202
:10351000EE2000F033FAA079012868D0A07A0028C4
:1035200065D06079002862D000F042FAD8B332202A
:1035300000F024FAB08800F0FDFD53EC182B00F0E9
:103540000DFEE8D34FF4FA6000F018FA677300221A
:1035500059464846FEF761F9A079012847D0A07A7C
:1035600008B36079F8B100F023FAE0B1322000F03E
:1035700005FAB08800F0DEFD53EC182B00F028FFB0
:10358000EAD9404600F0FAF90720E07084F817A065
:1035900040F2EE2000F0F2F9A079012827D0A07ABD
:1035A00008B101E033E022E0607900B300F000FAF6
:1035B000E8B1322000F0E2F9B08800F0BBFD53EC36
:1035C000182B00F0CBFDE7D3404600F0D7F90820D8
:1035D000E0706575144E00251E36322000F0CEF9DD
:1035E000707802281BD06D1C642DF6DB67750021F6
:1035F0000F48FFF7EBF84FF4FA7000F0BFF9BDEC9D
:10360000028B0021BDE8F05F0948FFF77BB80B4C47
:103610004FF4FA70683CE57000F0B0F9E770BDEC6B
:10362000028BBDE8F09F000000000020000802406F
:10363000C4000020CBA1053F000002406C03002025
:103640002DB29DEFA7C60F40022A02D26FF01500DF
:1036500070470A7802704978417000207047082A44
:1036600002D26FF0150070470022026042600A78B3
:10367000037802F001021A4302704B785B0003F0FA
:103680000203134303708A78920002F004021A4383
:103690000270CB78DB0003F00803134303700A7950
:1036A000120102F010021A4302704B795B0103F021
:1036B0002003134303708A79920102F040021A43F7
:1036C0000270CB79DB0103F08003134303700A7AA5
:1036D00043781A4342704A7A837802F00F021A4301
:1036E00082708B7A1B0103F0F003134383700A7B13
:1036F000C3781A43C2708989027942EA11210171A3
:103700000820704770B50D460446072A02D26FF0B4
:10371000150070BD287820806878FF22082100F00D
:10372000EFFA2188FF2208432080A8786080E8789B
:10373000082100F0E5FA6188FF22084360802879BB
:10374000A0806879082100F0DBFAA1880843A080F6
:10375000A87900F00100A071A87900F002004008EB
:10376000E071A87900F0040080082072A87900F0C8
:103770000800C0086072A87900F010000009A0726B
:10378000A87900F020004009E072A87900F040001C
:1037900080092073002070BD022A02D26FF015004C
:1037A00070470A7802F0010202700A7802F0020201
:1037B000520842700A7802F00402920882700A7875
:1037C00002F00802D208C2700A7802F01002120950
:1037D00002710A7802F02002520942710A7802F05E
:1037E0004002920982710A7802F08002D209C27105
:1037F000497801F001010172002070472DE9F04184
:10380000DFF84C815349544F01262DED028B0025E2
:10381000D8F82C00A7F16804884202D24F498842A8
:1038200006DBA068401CA060032802D3257101E0DC
:10383000A5602671B88800F07DFC9FED491B53EC14
:10384000112B00F08BFC09D3B88800F073FC9FEDBE
:10385000461B53EC112B00F0BBFD03D26069401CEA
:10386000606100E06561A069401CA06161690A298E
:1038700003D221884843C82801D9257400E0267462
:10388000206B401C206321884843B0F5FA7F02D9A1
:1038900084F82C5001E084F82C6098F817009FED14
:1038A000348B032802D0022806D011E03248006889
:1038B000406BB0F5487F0CD9B88800F03BFC53EC66
:1038C000182B00F04BFC03D8206A401C206200E05B
:1038D00025622088216A40F2DC524143914201D99D
:1038E000257700E0267798F8142042B12A466562D1
:1038F00042434FF47A739A4205D9657704E0626ACD
:10390000521C6262F4E7667798F8131031B12946C9
:10391000A5624143994205D9A57704E0A16A491CF3
:10392000A162F6E7A677207960B1207C50B1A07F34
:1039300040B1207F30B1607F20B194F82C0008B1F5
:10394000012000E00020A070BDEC028BBDE8F081FA
:10395000000000203333B3BF6C0300207B140E4102
:10396000A245B6F3FDD404C07B14AE47E18A65409E
:1039700096438B6CE7FBF73F5401002070B50A4D6E
:1039800004460A49002028620968801E0861074829
:10399000FEF76EFC00E030BF286AA042FBD3BDE812
:1039A00070400248FEF7A4BC000000209C010020EB
:1039B000044890F90000401E052801D801207047F6
:1039C000002070471E00002003480078072801D01F
:1039D00000207047012070471E00002008B5FDF749
:1039E0002FFFFFF7D5FAFFF793F8FFF71FF9FFF75F
:1039F00039FAFFF7B5F9FFF769F8FFF77DF9FFF737
:103A0000FDF9FFF763FAFFF7EBF868480025016856
:103A100041F48001016000682A4600F480000090B3
:103A200029463820FDF774FF3820FDF763FFFFF7C4
:103A30001BF8FFF76FFA00F027F901225C495D4897
:103A4000FDF700F8DFF868815B4E08F104084FF0DD
:103A5000020A4FF001094FF4007B6F1EA8F11E040B
:103A6000E770FFF7A5FF002872D084F80F900122BD
:103A700008213046FDF7D1FE98F8010001281DD03D
:103A8000022839D0032844D0052854D00428E7D18F
:103A900084F81290012259463046FDF7BEFE1020F0
:103AA000A07084F81090012201213046FDF7B5FE88
:103AB000607901282AD084F81790D1E784F8129011
:103AC000012259463046FDF7A8FE84F8029065753C
:103AD0002574002201213046FDF79FFE84F81790DF
:103AE00060790128BCD1A07A0028B9D1E07A0028F9
:103AF000B6D1FFF745FCB3E784F81290012259468E
:103B00003046FDF78AFE84F802A01DE084F817A075
:103B1000A6E784F81290012259463046FDF77DFE53
:103B20000420A0702574002201213046FDF775FEA7
:103B30000320E07594E784F812900122594630463C
:103B4000FDF76BFE0820A07025740022ACE7FFE7AC
:103B5000FFF73AFF002883D0A5740022594630466B
:103B6000FDF75BFEE573002208213046FDF755FEA8
:103B70002574002201213046FDF74FFE98F8010020
:103B8000012804D0002898D1FE20A07068E7A77013
:103B900065756079A17A0843E17A08438DD1207E6A
:103BA00001288AD100F00AF85AE7000030380240B4
:103BB0001A00002054000020000802402DE9F047C0
:103BC0002D4C01251420E070DFF8B0802E036574C1
:103BD0002A4631464046FDF720FEDFF8A4A04FF408
:103BE0008069012249465046FDF717FE6079012899
:103BF00005D0FFF7E9FE10B1207E012806D031463E
:103C00004046BDE8F0470022FDF707BE3220FFF72F
:103C1000B5FEA0790128E9D03220FFF7AFFE0027DA
:103C200067743A4631464046FDF7F7FD00224946A3
:103C30005046FDF7F2FD1520E07065750E4E00252B
:103C40001E363220FFF79AFE7078002811D06D1CC6
:103C5000642DF6DB677500210A48FEF7B7FD4FF4C7
:103C6000FA70FFF78BFEBDE8F04700210548FEF72C
:103C700049BDBDE8F08700000000002000080240B8
:103C800000000240C400002010B500F03DF8FCF731
:103C9000C7FC1948FDF728FB08B1FCF73FFD0221DE
:103CA0001548FCF779FF08B1FCF738FD1348FEF71B
:103CB000DFFA1248D830FEF7DBFA10484830FEF73A
:103CC000D7FA0D4800212830FEF71CFD0A48703055
:103CD000FEF7CEFA09489030FEF78EFA07494FF406
:103CE000D77090390968486304480021BDE8104046
:103CF0009038FEF707BD00009C000020E401002082
:103D00001040884080B2704770B5394D00242DEDC9
:103D1000028BFF209FED378A2C6285ED098A85EDA5
:103D20000A8AAC70E870FDF7F7FE42003248344E64
:103D30004168C068491CB2FBF1F1401CB1FBF0F0D6
:103D40004FF47A71B1FBF0F12C480122018001217E
:103D50008170C47001718460C460017444618461C5
:103D600001770462417744628177846280F82C1085
:103D700004636C75E975A97505F11E00AC830470C8
:103D800041706C71A971EC712C726C72AC72EC7236
:103D90002C73E9742975697389023046FDF73DFD7E
:103DA000AC73002280211748FDF737FDEC73002229
:103DB00008213046FDF731FD2C74002201213046E8
:103DC000FDF72BFD6C740022B1143046FDF725FD84
:103DD00005F13C0285ED0B8A0020A2F10801145484
:103DE0000C54401C0828FADBBDEC028B70BD0000AF
:103DF00000000020000000000C010020040300204F
:103E0000000802400000024021F00042A2F160528E
:103E1000B2F5801F01F0004328BFD2F17F6C0BD9AF
:103E20005FEA001C43EAC20242EB507018BF7047C1
:103E300028BF20F001007047B2F5801FBCBF1846B4
:103E400070474FEA410C1CF5001F02D2084600F0F3
:103E50006BBB70B500F068FA00000089FFF7F6BF91
:103E60004FF00040A0F580007047491058BFC1F1E5
:103E700040415B1058BFC3F140438B42EFF30080D9
:103E8000704700002DE9C04130B4DFF8A0C23CEA21
:103E9000111418BF3CEA131400F0EC8081EA03050A
:103EA0001CEA111444EAD57418BF1CEA131500F07B
:103EB000C780A4EB05044FF0004545EAC12145EA5F
:103EC000C32341EA505143EA525304F17F749942AB
:103ED00004F500344FEAC0204FEAC22208BF9042E6
:103EE00000F09C804FEA13650FF24016765D4FEAB2
:103EF000134506FB05F7C7F1807706FB07F74FEA86
:103F0000D737A7FB03687642C8F58038A7FB06CEF3
:103F100038BFA8F1010807FB08E64FF0000EA6FB2A
:103F2000028CE6FB03CEDCF1000CCEF1004E38BF74
:103F3000AEF1010EA6FB0C584FF000074FF0000544
:103F4000E6FB0E87A1FB08C6A0FB07CE16EB0E060C
:103F500045F10005E1FB076515F1E04E7EBFA4F5D4
:103F600080345FEA46066D4116F1800745F1000591
:103F70004FEA17274FEA066647EA0567A6F1DE46CD
:103F8000B6F1805F4FEA15251FD9384624F0010CA1
:103F900005EBC471BCF1FE6F01EB0C1102D8F0BC53
:103FA000BDE8008124425CBF01F5801E9EEAC47F0B
:103FB00002D4F0BCBDE80081244238D4F0BCA1F1A9
:103FC000C041BDE8004100F0FDB94FEAD22242EA0B
:103FD00043524FEAD323A7FB02864FEAD02040EAA0
:103FE000415007FB03661EEA0E0F4FEAD12105FB85
:103FF000026658BFA6EB0056B6EB00564FEA520ECB
:104000004EEAC37E18EB0E0E56EB530EBDD518EBE1
:1040100002085E417F1C55F10005B6E74FF480159C
:104020004FF000074FF000064FF00008ADE7F0BC7E
:104030004FF0000001F1C04101F00041BDE80081F6
:1040400011EA0C1F0CEA131500D00CE013EA0C1F48
:1040500000F025804FF00000F0BC81EA030101F080
:104060000041BDE80081F0BCBDE8004181EA0301E8
:1040700000F0A8B9F0BCBDE8004170B500F054F9FB
:10408000097EFC3E00F007B881EA03014FF0000012
:1040900001F00041704781EA030100F093B9F0BCE0
:1040A000BDE800414FF0000021497047FFFDFBF9DA
:1040B000F7F5F4F2F0EEEDEBE9E8E6E4E3E1E0DE5B
:1040C000DDDBDAD8D7D5D4D3D1D0CFCDCCCBCAC8CD
:1040D000C7C6C5C4C2C1C0BFBEBDBCBBBAB9B8B7F4
:1040E000B6B5B4B3B2B1B0AFAEADACABAAA9A8A8E7
:1040F000A7A6A5A4A3A3A2A1A09F9F9E9D9C9C9BB5
:104100009A9999989797969595949393929191905F
:104110008F8F8E8E8D8C8C8B8B8A898988888787F0
:104120008685858484838382828181800000FF0765
:104130000000F87FB0FA80F310FA03F10AD0C3F15F
:104140001D0303F580634FEA41504FEA035202EB2F
:10415000D12170474FF000007047000051EA030C76
:1041600017D41CF5801F58BFBCF5801F00F10680D6
:10417000994218BF704708BF9042704707D711F5A2
:10418000801F58BF13F5801F19D499427047894288
:1041900070471CF5801F08D5BCF5801FF7D58B42F2
:1041A00018BF704708BF824270474FF4001C1CEBD9
:1041B000410F38BF1CEB430F01D28B42704770B5E3
:1041C00000F0B2F8922449004FF000514FF08053B4
:1041D000FFF74BBEDFF848C170B51CEA111E1EBFC9
:1041E0001CEA13159EEA0C0F95EA0C0F00F06F8085
:1041F00081EA030423EA4C134EEAD47E21EA4C11EF
:1042000041F4801143F48013AE44A1FB024CA0FBA7
:104210000365AEF17F7E361955EB0C05A1FB034C0F
:104220004CF10003A0FB021C16EB0C06654153F198
:104230000003094218BF46F0010613F4007F0BD1BA
:104240004FEA03314FEA0530340341EA155140EAA1
:1042500016506FF003020AE04FEAC3214FEAC5206F
:10426000F40241EA555140EA56506FF0020202EB67
:104270002E4201EB025585EACE710AD05FEA440C6A
:1042800018BF24F0004450F1000041F1000120EA81
:10429000D47040F2FE7C624500D270BDA84214BFCB
:1042A0004FF080444FF04044002E08BF0024BEF180
:1042B000806FA8BFA1F1C041BDE8704080F282804C
:1042C0004FF0000001F1C04101F0004170479EEA4B
:1042D0000C0F0CEA131518BF95EA0C0F06D04FF01F
:1042E000000081EA030E0EF0004170BD00F01CF8E2
:1042F0008900013E00F007B800F009B84FEA430C0E
:104300005FEA5C5C08D081EA030100F05BB84FEA29
:10431000410C5FEA5C5CF6D14FF000000149704748
:104320000000FF070000F87F0EF1020E2EF0030ED2
:104330005EF8046B364205D4012A43EB030515F5FC
:10434000001F12D8012841EB010C1CF5001F0CD8EE
:104350000ED14FEAD17C15F5001F0CEB4C0C0CF183
:10436000020C08BF4CEBD37C04E04FF0080C01E0DA
:104370004FEAD37C0CEB4C0526FA05F606F007064F
:10438000B6F1040C06D20EEB860CBDE870404CF082
:10439000010C6047DFE80CF0090B02024FF000410E
:1043A0004FF00000A1F5002170BD1946104601280C
:1043B00051EB010418BFD4F5001484BF002001F0B4
:1043C000004170BD0808A0F500114FEA31017047A7
:1043D00053EA010C17D41CF5801F58BFBCF5801F91
:1043E00000F106808B4218BF704708BF82427047B9
:1043F00007D713F5801F58BF11F5801F19D48B42C2
:1044000070479B4270471CF5801F08D5BCF5801F84
:10441000F7D5994218BF704708BF904270474FF4D4
:10442000001C1CEB430F38BF1CEB410F01D299421B
:1044300070470FB40CBC03BCFFF7C1BE43004FEA8A
:10444000D30C4FEA3C0C43401FBF40070CF16051B6
:1044500013F0FE4F70471CF0006F03D100200CF0EA
:10446000004170470CF0004343EA507010B540EA39
:10447000CC0000F00EF800BF000000924FEA0001EF
:10448000FFF7A0BF4FF000414FF00000A1F5002161
:1044900070470EF1020E2EF0030E5EF8044B24421C
:1044A00004D44FEA4102B2F17F4F11D84FEA4003E2
:1044B000B3F17F4F0CD80ED14FEAD07CB2F17F4FD1
:1044C0000CEB4C0C0CF1020C08BF4CEBD17C04E063
:1044D0004FF0080C01E04FEAD17C0CEB4C0324FABE
:1044E00003F404F00704B4F1040C06D20EEB840CC0
:1044F000BDE810404CF0010C6047DFE80CF0070805
:1045000002024FF00040A0F5800010BD08464200B6
:1045100018BFD2F1807288BF00F0004010BD4FF08C
:104520004070E1EE100A7047FF2141EAD050C0050B
:10453000704700061016000610160000000000006C
:104540000000010203040607080900000000010240
:10455000030400007445000800000020540000001F
:1045600000020008C845000854000020040A0000AA
:104570001C02000800010000000000000000000014
:10458000000000000000000000000000000000002B
:10459000000000000000000000000000000000001B
:1045A000000000000000000000000000000000000B
:1045B00000000000000000000100000010000000EA
:0845C000000000000024F400DB
:04000005080001C529
:00000001FF
